:100000000C940C050C9434050C9434050C943405B4
:100010000C9434050C9434050C9434050C9434057C
:100020000C9434050C9434050C9434050C9434056C
:100030000C9434050C9434050C9434050C9434055C
:100040000C941A230C9434050C9434050C94340548
:100050000C9434050C9434050C9434050C9434053C
:100060000C9434050C9434058F11EA10F410FB1035
:1000700043116A126A126A126A128B118B116A1288
:100080006A121812C511DB11F811F111FF116A1271
:100090006A126A126A12711271127112711271125D
:1000A0003D12411271126A126A126A126A126A12BF
:1000B0009911121215124412481248126A12531260
:1000C0008D0C000105010F01BD0A1201C0008D0C4D
:1000D00000011D010F01BD0A1201CE008D0C0001AF
:1000E0002C010F01BD0A1201DC008D0C3A01440104
:1000F000C8008D0C3A014801D6008D0C3A014E0122
:10010000E400EA00F200FA006E0C0000030201BDF8
:100110000A120108016E140000FFD0FFE0FFD1FFBA
:10012000CFA3A0C8602CFF322EFF322FFF3226A6AD
:100130008118AFFF64A5FF64FF64A4FFD0FFFEFF3A
:10014000E0FFD11001FFFEFFE0FFD1AC00AEA5FF44
:10015000D1FFFEFFE0FFD1A4AFFF32FFD1FFFE00D1
:100160001F1FF1F0000106000020500007F0000002
:10017000FFFF0E0E1C11F3F2000C003C00F803F818
:100180000FF03FF003E007E00EC01CC03880708025
:10019000E000400010102011F2F10007001F007F66
:1001A00001FE07FE1FFC3FFC3FF807F80FF01FF0B1
:1001B0003EE07CE0F84070002000FFFFFFFFFFFF03
:1001C000FFFFFFFFFFFFFFFFFFFFFFFF0A0E1C11F6
:1001D000FCF20C000C001E001E003F003F007F8060
:1001E0007F80CCC08C400C000C000C000C000C106C
:1001F0002011FBF10F000F001F801F803FC03FC088
:100200007FE07FE0FFF0FFF0FFF0EF700F000F00E6
:100210000F000F00FFFFFFFFFFFF100F1E11F9F887
:10022000028002800280028002800280FEFF0000C5
:10023000FEFF028002800280028002800280101095
:100240002011F9F707C007C007C007C007C0FFFFAC
:10025000FFFFFFFFFFFFFFFF07C007C007C007C08A
:1002600007C007C0FFFF100F1E11F9F801000100C1
:1002700001000100010001000100FEFF010001007A
:100280000100010001000100010010102011F9F728
:10029000038003800380038003800380FFFFFFFF50
:1002A000FFFF0380038003800380038003800380BB
:1002B000FFFFFFFFFFFFFFFF0F0F1E11F2F1000214
:1002C000000C003C00F803F80FF03FF001E002E002
:1002D00004C008C010802080400080000F10201152
:1002E000F2F00006001E007E01FC07F81FF87FF008
:1002F0007FF007E00FE01DC039C07180E180C000D1
:1003000080000F0F1E11F2F10002000C003C00F8FB
:1003100003F8007000B00120022004000800100063
:100320002000400080000F0F1E11F2F10006001E99
:10033000007C01FC07F807F801F003F007600E40AD
:100340001C0038007000E000C000FF001116FEFB2A
:100350000B020A0485207FFD0CFD0BFD000000044C
:100360000001010B0B04020080808080808080806F
:10037000008080030303050108A0A0A0070A0A0863
:1003800000001414147E2828FC505050070E0E084C
:1003900000FE107C9292905038141292927C1010B1
:1003A0000B0B160C0000708089008900720002009F
:1003B0000400080009C01220122021C0080A0A0AFD
:1003C00001003048483020528A848A7101030303B7
:1003D0000108808080030E0E0501FD2040408080D2
:1003E000808080808080404020030E0E0501FD80CB
:1003F000404020202020202020204040800505056E
:1004000007010620A870A82007070709010110109E
:1004100010FE1010100204040300FE404040800350
:100420000101040004E00102020301008080040BCA
:100430000B040000101020202040404080808006E7
:100440000B0B0801007884848484848484848478F9
:10045000030B0B08020020E0202020202020202079
:1004600020060B0B080100788484040810204080CB
:1004700080FC060B0B080100788484040438040413
:10048000848478070B0B080100040C142444848432
:10049000FE040404060B0B080100FC808080F804B5
:1004A0000404848478060B0B08010078848080B8EB
:1004B000C48484848478060B0B080100FC040808BB
:1004C00010102020404040060B0B08010078848467
:1004D0008484788484848478060B0B0801007884F3
:1004E0008484847C040484847801080803010080E7
:1004F00080000000008080020A0A0400FE404000E4
:10050000000000404040800605050801020C30C094
:10051000300C060303090103FC00FC060505080175
:1005200002C0300C30C0060B0B08010030CC8484B4
:10053000040810200020200B0C180D01FF0F0030C4
:10054000C0402046A089209120912093408D80407A
:100550000060801F00090B1609000008001C001431
:100560000014002200220041007F004100808080B2
:1005700080070B0B090100FC86828284F88482824A
:1005800086FC080B0B0A01001C6341808080808080
:1005900041631C080B0B0A0100F88682818181816E
:1005A000818286F8070B0B090100FE80808080FCA9
:1005B00080808080FE070B0B080100FE8080808019
:1005C000FC8080808080090B160B01001E0061807A
:1005D00040808000800087808080808040806380B1
:1005E0001C80080B0B0A01008181818181FF8181C0
:1005F000818181010B0B04020080808080808080DB
:1006000080808080060B0B070000040404040404AF
:100610000404848478080B0B09010082848890A06C
:10062000E09088848281060B0B0802008080808025
:10063000808080808080FC0B0B160C00008020C026
:1006400060C060A0A0A0A0912091208A208A208470
:10065000208420080B0B0A0100C1A1A19191898976
:1006600085858383090B160B01001C006300410084
:1006700080808080808080808080410063001C00BA
:10068000070B0B090100FC86828286FC808080803B
:1006900080090B160B01001C006300410080808064
:1006A00080808088808480430063001C80080B0B5E
:1006B0000A0100FE83818182FC8281818181070B96
:1006C0000B09010038C682806018060282C638090C
:1006D0000B16090000FF8008000800080008000849
:1006E0000008000800080008000800080B0B0A01B9
:1006F00000818181818181818181423C090B1609C0
:1007000000008080808041004100630022002200C0
:1007100014001400080008000D0B160D00008208DC
:100720008208850845104510451028A028A028A05B
:1007300010401040090B1609000080804100220083
:1007400014000800080014002200410041008080CD
:10075000090B160900008080C180410022002200A0
:1007600014001C000800080008000800070B0B0913
:100770000100FE020408181020604080FE030E0EE7
:100780000401FDE080808080808080808080808087
:10079000E0040B0B0400008080404040202020102B
:1007A0001010030E0E0400FDE02020202020202049
:1007B0002020202020E00505050701062050508854
:1007C000880801010800FDFF0202020501098040BE
:1007D00007080808010078CC047CC484CC76060B9A
:1007E0000B070100808080B8CC84848484CCB80658
:1007F000080807010078CC80808084CC78060B0B39
:1008000008010004040474CC84848484CC74060835
:100810000808010078CC84FC8080CC78040B0B04A1
:100820000000304040E040404040404040060B0B5C
:100830000801FD74CC84848484CC7404CC78060BC9
:100840000B080100808080B8CC8484848484840177
:100850000B0B03010080800080808080808080807E
:10086000030E0E03FFFD202000202020202020204A
:10087000202020C0060B0B0701008080808890A0FC
:10088000C0A0908884010B0B0301008080808080D1
:100890008080808080800908100B0100B300CC802C
:1008A00088808880888088808880888006080808FA
:1008B0000100B8CC8484848484840608080801007C
:1008C00078CC84848484CC78060B0B0801FDB8CCEA
:1008D00084848484CCB8808080060B0B0801FD746E
:1008E000CC84848484CC74040404040808050100C6
:1008F000B0C0808080808080050808070100708873
:10090000C07018088870040A0A0400004040E040E3
:100910004040404040300608080701008484848439
:100920008484CC7407080807000082824444442869
:1009300028100908100A00008880888088804900F3
:100940004900550022002200070808070000C6449D
:100950002810102844C6070B0B0700FD82C2444430
:1009600024281810103060060808070000FC04084E
:1009700010204080FC050E0E0500FD1820202020D0
:10098000408040202020202018010E0E0301FD8011
:1009900080808080808080808080808080050E0EB6
:1009A0000500FDC02020202010081020202020203D
:1009B000C006030308010364B498FF00000000248C
:1009C0000027002A0000000000250028002B00005E
:1009D0000000002300260029000404040404040489
:1009E00004020202020202030303030303010204DE
:1009F00008102040800102040810200102040810A1
:100A000020000000070002010000030406000000AF
:100A1000000000000000AC0511241FBECFEFD8E09D
:100A2000DEBFCDBF11E0A0E0B1E0E6E6FBE402C02E
:100A300005900D92AC37B107D9F713E0ACE7B1E000
:100A400001C01D92AF30B107E1F71AE0C8E1DAE06A
:100A500004C02297FE010E94AD25C631D107C9F717
:100A60000E945E250C94B1250C940000FB01DC0172
:100A700002C005900D9241505040D8F70895FC01F6
:100A8000608351814281651710F091E002C01482A9
:100A900090E0641718F08381848390E08581891742
:100AA00011F081E0868395839923E1F0262F30E0D1
:100AB000251B3109838190E0451BBC01269FC001A5
:100AC000279F900D369F900D1124642F70E00E9497
:100AD00097259B01848190E08617970711F081E0AC
:100AE0008683248308951F93282F162F8CEB91E083
:100AF000622F0E943F0583EC91E0612F0E943F0529
:100B00008091C101882321F08091C801811181E089
:100B10008093CA018091C201882321F48091C90188
:100B2000882319F081E08093CB011F910895FF92F3
:100B30000F931F938C01262FFC01F3AC04966F2DAD
:100B400044AD0E947B1DF80EF801F3AE81E090E009
:100B50001F910F91FF900895AF92BF92CF92EF92A5
:100B60000F93109281011092800160E8A62E61E03F
:100B7000B62E88E791E0F501929382935F01CF0151
:100B800065E671E047E028E004E056E0E52E35E058
:100B9000C32E0E945C2180E791E0F5019183808360
:100BA0008FE091E06AE776E049E55AE02AE03FE02D
:100BB0000E9420070F91EF90CF90BF90AF900895C3
:100BC0000E941B078091CA01882329F082E891E0E6
:100BD0000E94211A04C082E891E00E94271A4091E5
:100BE000830141508091C701481B82E891E06091E8
:100BF000C0010E941D1A0E941607882321F48091CB
:100C0000CB018823C9F01092CB018091BB018823CE
:100C100039F481E08093BB0182E891E00E94A81E34
:100C200082E891E00E94B81E0E94110782E891E0DC
:100C30000E94BE1E8823C1F70895EF92FF920F9382
:100C40001F93F82EE62E142F822F60E00E94782446
:100C5000812F62E00E9478248F2D61E00E94782429
:100C60008E2D61E00E9478248F2D61E00E94B724D0
:100C70008E2D60E00E94B7246AE070E080E090E092
:100C80000E946223812F0E94F6238C018F2D60E049
:100C90000E9478248E2D60E00E9478246AE070E043
:100CA00080E090E00E9462231595079515950795C1
:100CB000802F1F910F91FF90EF9008951F938091C7
:100CC00054016091530140915601209155010E94B9
:100CD0001D06182F809155016091560140915301D6
:100CE000209154010E941D06682F812F0E947305D8
:100CF0001F9108951F93CF93DF93EC01162F662366
:100D000079F40E945E068091CA01882349F0CE01E1
:100D10006091C0014091C7010E9489148CE404C015
:100D2000CE01612F0E94B10DDF91CF911F910895E7
:100D3000CF92DF92EF92FF920F931F937B016A0194
:100D40000FEF10E0B801681B790B8BE00E941824AC
:100D5000B8016E197F098AE00E9418240C191D0938
:100D600089E0B8010E9418241F910F91FF90EF9025
:100D7000DF90CF9008950F931F9302E811E0C80110
:100D80006CE170E10E94791280E06BE473E00E94F4
:100D9000090781E060917D010E94271683E0609140
:100DA0007C010E942716C8016FE571E00E94161AA7
:100DB000C80162E40E941A1A909182012091830175
:100DC00082E28093BD0188EE8093BE0191509093A2
:100DD000BF0187E58093C4018EED8093C50121504A
:100DE0002093C60181E08093CB018FEF90E06FEFFD
:100DF00070E04FEF50E00E9498061F910F91089508
:100E0000609181027091820284E692E00E947814DF
:100E10000895282FAB0184E692E0622F0E94A61469
:100E2000089584E692E00E94FE09089584E692E027
:100E30000E94DD14089584E692E00E943A15089518
:100E4000EF92FF920F931F93FC01DB017A0189015E
:100E500084E692E0BF01AD0197010E9457151F91F2
:100E60000F91FF90EF900895DF93CF93CDB7DEB74A
:100E700028970FB6F894DEBF0FBECDBF6B839A8361
:100E8000898328EA32E038872F830E945416FC01B8
:100E9000CE010196099528960FB6F894DEBF0FBED5
:100EA000CDBFCF91DF910895CF92DF92EF92FF9265
:100EB0000F931F93DF93CF9300D0CDB7DEB77C01A4
:100EC00088EA92E00E94EF138C0162E10E943407ED
:100ED000C82EC80161E10E943407D82E2091C802B3
:100EE0003091C302F7019081291708F466C081810F
:100EF000381708F462C0291BC21608F45EC0381BFC
:100F0000D31608F45AC01982C8010E94CC0D82E79A
:100F1000BE016F5F7F4F0E94D60D85E00E94080ED4
:100F20001A82C8010E94CC0D84E7BE016E5F7F4F1C
:100F30000E94D60D85E00E94080E8A818823E9F17F
:100F4000DC9C900111248091A1029091A202821751
:100F5000930798F13093A2022093A1021093CA0242
:100F60000093C9028981882341F58091A6028823D4
:100F700021F10091A3021091A40246EB52E0B801C6
:100F800020E030E0FA018191AF01FB018687D801B2
:100F9000A20FB31FF901E855FD4F808191818D9318
:100FA0009C936F5F7F4F2E5F3F4FF2E04D3B5F079B
:100FB00049F7FA018081F801858B0F900F90CF914E
:100FC000DF911F910F91FF90EF90DF90CF900895E8
:100FD000AF92BF92CF92DF92EF92FF920F931F9347
:100FE000DF93CF9300D000D00F92CDB7DEB7FC01D6
:100FF000908181818B839A83198288EA92E060E0F4
:101000000E94AC13882309F463C092E0C92ED12C4E
:10101000CC0EDD1E5E010894A11CB11C82E0E82EFE
:10102000F12CEC0CFD1C88EA92E00E94FB13E0918D
:10103000BD02F0E0E855FD4F8485B6010E94D60D53
:1010400084E00E94080E8823C1F188EA92E00E94A1
:10105000EF130E94CC0D84E6B5010E94D60D85E009
:101060000E94080E8FE00E94080E082FE091BD023A
:10107000A091A302B091A40255968C9155978E171A
:1010800010F410E00DC0F0E0329710E0AE0FBF1F7B
:10109000E855FD4F96851E968C91981709F411E03E
:1010A000C7010E9454078981813021F0112311F476
:1010B000002319F0C7010E94E80788EA92E00E9425
:1010C0004A13882309F0AFCF88EA92E00E948D137B
:1010D0000F900F900F900F900F90CF91DF911F9175
:1010E0000F91FF90EF90DF90CF90BF90AF90089559
:1010F000BF92CF92DF92EF92FF920F931F93DF93F5
:10110000CF9300D0CDB7DEB7162FF42EE22EB02E3F
:101110009093C7028093C6020E94E5136C019093DE
:10112000A4028093A3021093C802F092C3028FEF2F
:101130009FEF9093A2028093A1021092CA02109294
:10114000C9028FEF8093A7028093A5021092A0029C
:101150001092C502E092A602F6018589882319F44F
:1011600020E030E044C019821A82F601808191812A
:101170009093A9028093A80281E08093BD028E0122
:101180000F5F1F4FC8010E945407C8010E94E80763
:101190008091C9029091CA022091A6020097D9F0CD
:1011A000222331F0E091C602F091C70295A384A3F7
:1011B000BB20C9F0C6010E9440148091C9029091E1
:1011C000CA020E94CC0D80E0B6010E94D60D8EE1CD
:1011D0000E94080E08C0222331F0E091C602F0916F
:1011E000C70215A214A22091C9023091CA02C901F6
:1011F0000F900F90CF91DF911F910F91FF90EF9083
:10120000DF90CF90BF900895EF92FF920F931F93BE
:10121000CF93DF937C01062F3091BD02323018F15D
:10122000C091A302D091A4024D894317E0F0232F6F
:1012300021502150E22FF0E0DE01AE0FBF1FE85534
:10124000FD4F96851E968C91981769F4222389F795
:10125000341711F011E008C08E89882311F013E0D3
:1012600003C012E001C010E088EA92E00E9440143E
:10127000112361F40E94D10DE091C602F091C702E2
:1012800024A135A12817390709F412E0812FB701ED
:101290000E94D60D802F0E94080EDF91CF911F91E2
:1012A0000F91FF90EF900895AF92BF92CF92DF928F
:1012B000EF92FF920F931F93DF93CF9300D000D054
:1012C0000F92CDB7DEB7FC01908181818B839A8329
:1012D000198288EA92E060E00E94AC13882309F446
:1012E0007DC08091BD020E94D60E32E0C32ED12C6B
:1012F000CC0EDD1E5E010894A11CB11C22E0E22E82
:10130000F12CEC0CFD1C88EA92E00E94FB13E091AA
:10131000BD02F0E0E855FD4F8485B6010E94D60D70
:1013200084E00E94080E882309F445C088EA92E010
:101330000E94EF130E94CC0D84E6B5010E94D60DE9
:1013400085E00E94080E8FE00E94080E082FE091B1
:10135000BD02A091A302B091A40255968C9155971D
:101360008E1710F410E00DC0F0E0329710E0AE0FD1
:10137000BF1FE855FD4F96851E968C91981709F46E
:1013800011E08091C402882321F4C70168E20E9421
:1013900004098981813021F0112311F4002319F00F
:1013A000C7010E9454098091C402882321F0C7011B
:1013B00068E20E94040988EA92E00E944A138823A6
:1013C00029F08091BD020E94DC0E9DCF8091BD026C
:1013D0000E94E20E88EA92E00E948D130F900F9017
:1013E0000F900F900F90CF91DF911F910F91FF9071
:1013F000EF90DF90CF90BF90AF9008950F931F9321
:10140000DF93CF9300D0CDB7DEB78C019093C702A6
:101410008093C602FC0186A18093C40281A192A19F
:101420000E942C0EC8010E94E513FC019093A402B7
:101430008093A30219821A828589882399F080817A
:1014400091819093A9028093A80281E08093BD02CC
:101450008E010F5F1F4FC80168E20E940409C80196
:101460000E9454090E94BC0E0F900F90CF91DF9103
:101470001F910F9108950F93CF93DF93EC016C3080
:1014800021F06D3049F080E010C0642F422F21E040
:1014900000E00E94780808C0642F422F21E001E09C
:1014A0000E9478081DA21CA281E0DF91CF910F91CC
:1014B0000895FF920F931F93CF93DF93EC01162FA4
:1014C000042FF22E0E943B0A882311F081E006C00F
:1014D000CE01612F402F2F2D0E94ED16DF91CF916D
:1014E0001F910F91FF9008951F93FC01162F80818B
:1014F000918164E00E945F16112319F00E94000E92
:1015000002C00E94040E1F9108950F931F93CF9362
:10151000DF93EC01062F662319F00E947F0B02C0B7
:101520000E947A0B182FCE01602F0E94740A811737
:1015300008F4812FDF91CF911F910F910895FF92B1
:101540000F931F93CF93DF93EC01062FF42E4423C8
:1015500011F480E00CC00E94850A182FCE01602F84
:101560000E94740A181B812F92E0F9128695DF9170
:10157000CF911F910F91FF9008950F931F93CF93D9
:10158000DF93EC018A818430E1F0853030F48230E1
:10159000B1F0833009F048C008C08131E9F18231EF
:1015A000F1F18F3009F040C00AC00C811D818881A3
:1015B000998164E00E945F16F8019183808381E045
:1015C00036C00C811D81CE010E94740B6CE70E9415
:1015D0000316482FCE0161E00E949F0AF801838321
:1015E0000C811D81CE010E94740B6DE20E940316D6
:1015F000482FCE0160E00E949F0AF8018283EC81AF
:10160000FD8183819181890F8383EC81FD818281BA
:101610009081890F8283D3CFCE0161E002C0CE01D9
:1016200060E00E94850A03C0CE010E94980BDF9102
:10163000CF911F910F9108950F931F93CF93DF9335
:10164000EC0167E70E9407168823B1F4CE0167E535
:101650000E940716082F10E00E94CE0E90E09C0119
:10166000209FC001219F900D309F900D112426E0F6
:10167000969587952A95E1F7DF91CF911F910F916C
:1016800008950F931F93CF93DF93EC0168E60E94B8
:1016900007168823B1F4CE0168E40E940716082FCC
:1016A00010E00E94D20E90E09C01209FC001219F7B
:1016B000900D309F900D112436E0969587953A95C0
:1016C000E1F7DF91CF911F910F91089562E00E94A1
:1016D0006C1608950E94660B0E941C0B08950E94D0
:1016E000660B0E94410B0895FC01808191810E944C
:1016F000660B08950E94740B0E941C0B08950E94B3
:10170000740B0E94410B08950E94740B61E641E046
:101710000E94F61508951F93162F0E94740B612FD7
:101720000E9407161F91089566E60E948B0B08958C
:10173000EF92FF920F931F93CF93DF93EC018A8177
:10174000803131F0883291F0853039F080E03DC051
:10175000CE0162E70E948B0B38C00C811D81CE0147
:101760006B810E948B0BF80180832EC0CE010E94FA
:10177000940BE82E0C811D81888199810E94040EB2
:10178000F82E888199810E94000E282F8B8182304B
:1017900040F4F801808161814F2D0E2D0E944C0E86
:1017A00013C0823041F4F801808161814F2D0E2DEC
:1017B0000E945C0E09C0833039F4F8018081618198
:1017C0004F2D0E2D0E946C0E81E0DF91CF911F9165
:1017D0000F91FF90EF900895EF92FF920F937C018D
:1017E0000E945D17482FC70160E020E000E00E94E2
:1017F000A017682FC70147E70E948C170F91FF9031
:10180000EF9008950F931F93082F623040F0162F2A
:1018100011500E94B40E189F102D1124011B802F0F
:101820001F910F910895CF92DF92FF920F931F9314
:10183000CF93DF93EC01F62E6A010E945D17182FFB
:10184000CE0160E0412F21E001E00E94A017612F4E
:101850000E94020C082FCE010E946F0B081710F097
:1018600010E003C0182F101B1695100FF6011383FC
:10187000F394CE0160E04F2D21E001E00E94A0171B
:101880006F2D0E94020C181BF6018181180F138323
:1018900080818283DF91CF911F910F91FF90DF9024
:1018A000CF900895EF92FF920F931F937C010E94B7
:1018B0005D17182FC70160E0412F21E001E00E9471
:1018C000A017612F0E94020C682FC70148E60E94F2
:1018D0008C171F910F91FF90EF900895FC0182816A
:1018E000813169F0823181F0843099F444815581ED
:1018F0008081918163810E94130C81E00895808131
:1019000091810E94520C0895808191810E94EC0B7C
:101910000895CF010E9467170895DF92EF92FF921A
:101920000F931F93CF93DF93EC018A818E31C9F41B
:10193000EE80FF808881998166E00E945F168C01AD
:10194000CE016EE60E948B0BD82ECE0166E70E9478
:101950008B0B282FC701B8014D2D0E94651381E024
:1019600003C0CE010E94C30CDF91CF911F910F9154
:10197000FF90EF90DF900895FC018081918164E0F9
:101980000E945F160895BF92CF92DF92EF92FF926E
:101990000F931F93CF93DF93EC010E94940BB82E0B
:1019A0008A81813171F0823120F4823009F059C08E
:1019B00006C0823191F0883209F053C01EC080E029
:1019C00053C08B2D0E94860E682FCE010E94E41614
:1019D000682F8B2D0E948C0E47C0CE010E94BC0C3C
:1019E000BC018B2D0E947C0E682FCE010E94DB165D
:1019F000682F8B2D0E94960E37C00C811D8180911F
:101A0000C402882319F4CE010E94980BF801D080FB
:101A1000C180CE010E94BC0CBC018B2D0E947C0EAB
:101A2000682FCE010E94DB16082F8B2D0E94860E98
:101A3000682FCE010E94E416182FCE010E94BC0C24
:101A40007C018D2D6C2D402F212F0B2D0E94E80E37
:101A50008091C402882319F0CE010E94980B81E086
:101A600003C0CE010E94980BDF91CF911F910F917F
:101A7000FF90EF90DF90CF90BF9008951F93182FA5
:101A80000E941C16882311F420E009C0812F0E94B7
:101A900012160E940B2520E0892B09F421E0822FE9
:101AA0001F91089581E00E943E0D882311F081E08E
:101AB000089582E00E943E0D882311F082E008958F
:101AC00083E00E943E0D882311F083E0089584E0B6
:101AD0000E943E0D882311F084E0089585E00E9465
:101AE0003E0D882311F085E0089586E00E943E0DAA
:101AF000882311F086E0089587E00E943E0D811151
:101B000087E008951F93182F0E941C16882359F010
:101B1000812F0E941216182F60E00E947824812FD6
:101B200061E00E94B7241F91089581E00E94820D18
:101B300082E00E94820D83E00E94820D84E00E9478
:101B4000820D85E00E94820D86E00E94820D87E072
:101B50000E94820D88E00E94820D89E00E94820D21
:101B60000895662321F0613029F080E008950E94F5
:101B7000520D08950E94950D80E00895FC01118298
:101B800010821382158214821782168208958CECBB
:101B900091E00E94BE0D08959093CD018093CC01F9
:101BA00008958091CC019091CD0108958093CF014B
:101BB0007093D1016093D00108959093D3018093E5
:101BC000D2010895DF93CF93CDB7DEB728970FB634
:101BD000F894DEBF0FBECDBF6B839A8389831886CE
:101BE0001F820E945416FC01CE0101960995289689
:101BF0000FB6F894DEBF0FBECDBFCF91DF91089531
:101C000061E10E94E20D089562E10E94E20D0895F3
:101C10000F931F938093CE010EEC11E0F801929187
:101C200082918F010E945416FC01C80109951F91F1
:101C30000F9108958093CB02E091D702F091D802E2
:101C40008BEC92E0099508959093D8028093D70287
:101C500080E00E941A0E08959093D8028093D702D4
:101C600081E00E941A0E0895EF92FF920F938093E5
:101C7000CC026093CD024093CE022093CF0200931A
:101C8000D002F092D602E092D50286E00E941A0EAF
:101C90000F91FF90EF9008950F938093CC02609383
:101CA000CD024093CE022093CF020093D00288E071
:101CB0000E941A0E0F9108950F938093CC026093A7
:101CC000CD024093CE022093CF020093D00289E050
:101CD0000E941A0E0F9108950F938093CC02609387
:101CE000CD024093CE022093CF020093D0028CE02D
:101CF0000E941A0E0F9108958093D0027093D6021D
:101D00006093D50281E10E941A0E08958093D0025B
:101D100085E10E941A0E08951F93162F8093D0021A
:101D200086E10E941A0E810F1F9108951F93162FAE
:101D30008093D00287E10E941A0E810F1F910895AF
:101D40001F93162F8093D00288E10E941A0E810FF4
:101D50001F9108951F93162F8093D00289E10E944E
:101D60001A0E810F1F91089582E20E941A0E0895A3
:101D700086E20E941A0E089582E00E941A0E0895CB
:101D80009093D8028093D7026093D0025093D602EA
:101D90004093D50287E20E941A0E089588E20E94BD
:101DA0001A0E089589E20E941A0E08958093D302B4
:101DB0008AE20E941A0E08958093D3028CE20E9458
:101DC0001A0E08958093D3028BE20E941A0E089592
:101DD000BF92CF92DF92EF92FF920F931F93982FB3
:101DE000D62EC42EB22E802F692F0E94A00E182F3F
:101DF000802F6D2D0E94AA0E682F812F4C2D2B2D28
:101E00000E94340E1F910F91FF90EF90DF90CF90C2
:101E1000BF900895CF93DF93EC018881873109F457
:101E200091C0883190F48B3009F47BC08C3030F451
:101E30008830F9F0893009F098C03CC08E3009F440
:101E400079C0863109F091C012C0843250F48232D8
:101E500008F090C0883109F481C0893109F085C04B
:101E600004C0863209F081C085C092E084C093E04E
:101E700082C08D8182FF0EC0809158019981282FE8
:101E800030E0220F331F4B81421B890F6A812C8166
:101E90000E946C108091EA028093EC0290915701AD
:101EA0008091ED02981708F060C08091E502809360
:101EB000EC025BC08D8182FF21C08091E50280939E
:101EC000EC0289816A816F5F4B8142502C812250E4
:101ED0008F5F0E944A10809158019981282F30E02D
:101EE000220F331F4B81421B890F6A812C810E9474
:101EF0006C108091ED028093570137C08091EA0207
:101F00008093EC02809158019981282F30E0220FB4
:101F1000331F4B81421B890F6A812C810E946C10F8
:101F200024C08091E5028093EC0289816A814B8113
:101F30002C8105C02C81269589816A814B810E9464
:101F40004A1013C0209159018091580190E0820FEE
:101F5000911D880F991F982F9D5F0DC0909158017A
:101F600080915901980F9F5F06C0CE010E94CB104F
:101F7000982F01C090E0892FDF91CF9108950F93A2
:101F80001F930091D4011091D5010E943F10BC0114
:101F9000C8010E94AC1CE091D401F091D501808D64
:101FA000918D891B95E0899F802D112485958595BC
:101FB000859586300CF486E01F910F910895DF928D
:101FC000EF92FF920F931F93E82E062F842FD22EAD
:101FD0000E94BF0FF82E1091D601101B8091D401E2
:101FE0009091D5016091EC020E94E81E412F4F199B
:101FF0008091D4019091D5016E2D2F2D0F2D0E942F
:102000000B2181E0D81619F083E0D81679F40F2D52
:10201000045082E0E80E1250101B8091D401909180
:10202000D5016E2D412F202F0E94EE201F910F9180
:10203000FF90EF90DF900895CF93DF93EC018091B4
:10204000D4019091D501892B11F480E015C08881CD
:10205000843259F0853249F08F3059F489816A8190
:102060004D812E810E94DF0F04C08D810E94BF0F21
:1020700003C0CE010E94E517DF91CF910895E82FAC
:10208000F0E0E370F070EE0FFF1FE352FD4F808130
:1020900091810895EF92FF920F931F93F82EE42EF3
:1020A000022F1091D6011F5F161B8091D4019091D1
:1020B000D5016091EB020E94E81E101B8091D401B3
:1020C0009091D5016F2D412F2E2D0E94EE201F9152
:1020D0000F91FF90EF900895DF92EF92FF920F9390
:1020E0001F93E82ED42EF22E1091D6011F5F161BDF
:1020F000121BDA94FA948091D4019091D5016091E9
:10210000EB020E94E81E8091D4019091D5016E2DC2
:10211000412F2D2D0F2D0E940B216D2D6E0D412F66
:102120004F5F8091D4019091D5012F2D0E947C208A
:10213000E3941F0D8091D4019091D5016E2D412F14
:102140002D2D0E943F211F910F91FF90EF90DF9066
:102150000895EF92FF920F931F93F82EE42E022F13
:102160001091D6011F5F161B8091D4019091D5016B
:102170006091EB020E94E81E101B8091D4019091A7
:10218000D5016F2D412F2E2D0E940B211F910F91F4
:10219000FF90EF900895EF92FF920F931F93CF93CC
:1021A000DF93EC012091D4013091D5012115310547
:1021B00009F497C1888190E0FC013397EC32F10576
:1021C00008F088C1EC5CFF4FEE0FFF1F0590F49103
:1021D000E02D09944091D6018A81481BC90169818B
:1021E0002C810E947C2076C189816A814B812C815F
:1021F0000E944A106FC10981C9016091EC020E94DE
:10220000E81EED81F0E0E370F070EE0FFF1FE35287
:10221000FD4F608171818091D4019091D5010E9420
:10222000AC1C8091D4019091D5010E940A1C8D8133
:1022300083FF10C01B81112369F06A857B85809123
:10224000D4019091D5010E94771C012F081B06959F
:102250008981080F1091D6011F5F8A81181B6A853A
:102260007B858091D4019091D5010E945E1C081B52
:102270002A853B858091D4019091D501602F412F13
:102280000E94531D27C1F980C9016091EC020E9490
:10229000E81EED81F0E0E370F070EE0FFF1FE352F7
:1022A000FD4F608171818091D4019091D5010E9490
:1022B000AC1C8091D4019091D5010E940A1C8D81A3
:1022C00083FF10C01B81112369F06A857B85809193
:1022D000D4019091D5010E94911CF12EF81AF69428
:1022E0008981F80E1091D6010A816A857B858091DB
:1022F000D4019091D5010E946A1C1F5FF81A101B2F
:102300002A853B858091D4019091D5016F2D412F75
:102310000E942A1DDFC08091EA028093EC02409166
:10232000D6018A81481BC90169812B810E943F2106
:10233000D1C00D81037010E06A857B85F801EE0F36
:10234000FF1FE352FD4F71836083C9010E94AC1CE3
:102350008091D4019091D5016DE60E94B11BE801F6
:10236000CA51DD4F88838091D4019091D50160E3FB
:102370000E94B11B982F07521D4FF801808388815E
:1023800089170CF0AEC09883ACC0ED81F0E0E3702B
:10239000F070EE0FFF1FE352FD4F60817181C901A4
:1023A0000E94AC1C6A857B858091D4019091D501F7
:1023B0000E94541C97C0ED81F0E0E370F070EE0FC6
:1023C000FF1FE352FD4F60817181C9010E94AC1C67
:1023D0006A857B858091D4019091D5010E94591C1A
:1023E00081C0ED81F0E0E370F070E752FD4F1BC05B
:1023F000ED81F0E0E370F070EA51FD4F14C0ED8123
:10240000F0E0E370F070EE0FFF1FE352FD4F6081CC
:102410007181C9010E94AC1CE091D401F091D501F9
:10242000838D60C0F90180815DC0F90181815AC04E
:1024300089816A814B812C810E94A9108C818250F4
:102440006F8149850E94C617182F8C818250612F99
:102450004F81298508850E94D41729816A819C8132
:10246000690F6150681B611B4B814250822F8F5F47
:10247000212F0E944A1081E035C080915A01880FB7
:1024800031C080915A012EC088858093ED0222C010
:1024900098859093ED02809157018917D8F08FEFBE
:1024A0008093570117C01981C9016091EC020E9405
:1024B000E81E4091D6018A81481B0C81401B4F5F6A
:1024C000EA84FB848091D4019091D501612F2B8106
:1024D0000E946919E0915B01F0915C01CE010995C0
:1024E00001C080E0DF91CF911F910F91FF90EF909D
:1024F0000895FC019093D5018093D40170935C0101
:1025000060935B01818181508093D601CF010E944D
:102510000A1C8091D4019091D5010E94EE1E8093F7
:10252000EA028091D4019091D5010E94FA1E809315
:10253000E5028091EA028093EC028091D4019091AF
:10254000D5010E94EE1E8093EB020895CF93DF9396
:10255000DC01EB019A01D7968C91D797882311F46F
:1025600090E029C04FB7F894D6968C91D697FD018C
:10257000E80FF11D92A56115710511F086A58883FC
:102580002115310549F0D6968C91D697FD01E80FBB
:10259000F11D82A9F9018083D6968C91D6978F5F21
:1025A0008370D6968C93D697D7968C91D797815077
:1025B000D7968C934FBF892FDF91CF910895DC017F
:1025C0006623D9F05FB7F894D6963C91D697D79604
:1025D0009C91D797832F890F8370FD01E80FF11D20
:1025E00062A746A722AB943020F03F5FD6963C937B
:1025F00003C09F5FD7969C935FBF089540E020E0A3
:102600000E94DF120895FC0166FF02C06F7B38C094
:1026100081A5813071F0813028F0823099F08330CB
:10262000C1F51DC06623A9F183E080A767A381E0FF
:102630001AC087A1861749F580A5882399F0815093
:1026400080A70895662319F483E080A70CC087A1B2
:102650008617D9F48C30E9F4CF016CE011C037A1B2
:10266000361719F482E081A7089580A5882359F4CC
:1026700011A63C3019F4CF016DE002C0CF01632FE9
:102680000E94DF120895662311F011A6089581506B
:1026900080A708951F93CF93DF93EC011D8912301B
:1026A00078F00E942D141250FE01E10FF11D668595
:1026B0006F5F681728F4CE010E940B1481E001C0FF
:1026C00080E0DF91CF911F910895FC0161157105A4
:1026D00011F465E171E0708F678B428F218F08954F
:1026E0001F93CF93DF93EC016F89788D611571058E
:1026F00011F480E00EC01A8D188E1F8A1A8E0E9467
:10270000511804C0CE010E94C31611501123D1F7F5
:1027100081E0DF91CF911F910895FC01858982307E
:1027200010F480E008958150858B81E00895CF9367
:10273000DF93EC018D89833030F40AC0CE010E9412
:102740008D13882331F0CE010E9433148823B1F712
:1027500081E0DF91CF9108951F93CF93DF93EC0138
:10276000162F0E945614882369F41123B1F0CE016C
:102770000E94401480E0BE010E94D60D8EE10E94AE
:10278000080E0CC08D89863040F48F5F8D8BCE0192
:1027900060E00E940B1481E001C080E0DF91CF91E6
:1027A0001F910895CF93DF93EC0106C0CE0160E046
:1027B0000E94AC13882331F0CE010E945C14882360
:1027C000A9F781E0DF91CF9108950895E62FF0E019
:1027D000EE0FFF1FE80FF91F808191810895FC0122
:1027E000658961500E94E6130895FC016589625075
:1027F0000E94E61308950F931F938C010E94C70D4A
:10280000C8010E94DD0DC8010E94F5130E94CC0D85
:102810001F910F910895FF920F931F938C01F62E35
:102820000E94FB13F801258981E090E0821B910949
:10283000880F991FB801681B790B8F2D0E94D60D48
:1028400083E00E94080EF8018589080F111DF80128
:10285000F4861F910F91FF9008950E94FB1382E070
:102860000E94080E0895FC018589823010F480E0F2
:102870000895CF010E94FB138FE00E94080E089577
:102880000F931F938C010E94C70DC8010E94DD0D9C
:10289000C8010E94EF130E94CC0D1F910F91089563
:1028A0000E94401484E10E94080E08950E94401482
:1028B00082E00E94080E08950E9440148FE00E945A
:1028C000080E08950E94401480E10E94080E0895A9
:1028D0000E9440148FE10E94080E0895FC0182813D
:1028E000803111F481E00895CF010E94980B089582
:1028F000DC01FB016115710531F05E967C936E93EE
:102900005D9761E009950895FC0171AF60AF08958E
:102910000895FC01678F40A308950E94E513FC0110
:10292000808191810895EF92FF920F931F938B0105
:10293000F42EE22E0E94E513B8014F2D2E2D0E9499
:1029400065131F910F91FF90EF9008950F931F93C0
:102950008C01FC0181A192A10E94C00EC8016BE014
:102960000E94FE121F910F910895CF92DF92EF9275
:10297000FF920F931F93CF93DF937C010E94E51387
:10298000EC01C880D9800F89188D0E9470138823AC
:1029900059F0D701DA96ED91FC91DB97C801B601A9
:1029A000498D0995198E81E0DF91CF911F910F918B
:1029B000FF90EF90DF90CF900895AF92BF92CF92AB
:1029C000DF92FF920F931F93DF93CF9300D0CDB789
:1029D000DEB78C0119821A820E94B5148823D9F5BA
:1029E000C8010E948D148551914011F4FF2435C017
:1029F000FF2482E0A82EB12CAC0EBD1E6E010894FF
:102A0000C11CD11C02C0FF24F394C8010E94B5145C
:102A1000882309F5C801B601A5010E94A612682FF6
:102A20008823D9F0873059F4D801D8966D917C91DC
:102A3000D997C80140E020E00E949314E4CFD80168
:102A40005B96ED91FC915C973097E9F2C801498162
:102A50002A810995D8CFFF24F3948F2D0F900F90E2
:102A6000CF91DF911F910F91FF90DF90CF90BF909A
:102A7000AF900895CF93DF93EC01ED8DFE8D3097ED
:102A800099F060E00995682F8C3411F481E08BA3F4
:102A90008BA1882321F0662311F41BA26DE4CE01E3
:102AA0004F8D28A10E940313DF91CF910895CF92FB
:102AB000DF92EF92FF920F931F93CF93DF93EC017E
:102AC0007B016A01C8011F8E18A21EA21FAA1EAA9E
:102AD0001BA21DA21CA23C8F2B8F1AA309A328E8BE
:102AE00034E13BAF2AAF0E94240E0E94B80E8EA3A1
:102AF00019A6CE01B7010E948414CE010E94E513ED
:102B0000B7010E945118CE010E948D148551914049
:102B100021F0CE016BE00E94FE12CE010E94E5136F
:102B2000FC01118ECE01B6010E947814DF91CF9185
:102B30001F910F91FF90EF90DF90CF9008958091BB
:102B4000EE029091EF0201969093EF028093EE02D5
:102B50000895E091EE02F091EF02808108950E94C5
:102B6000A915882329F081321CF40E949F15F7CF04
:102B700008950F931F9310E00AE00E94A915805357
:102B80008A3038F4109F102D1124180F0E949F15C1
:102B9000F4CF0E94AF15812F1F910F9108950E94CD
:102BA0009F150E94AF150E94A91580538A3010F41A
:102BB0000E94B91508950F931F93082F162F0E9496
:102BC000AF150E94A915882329F0801739F00E94BB
:102BD000CF15F7CF812F1F910F9108950E949F1558
:102BE0000E94AF150E94B915182FF4CF009749F035
:102BF0009093EF028093EE02862F642F0E94DB15E4
:102C0000482F842F08954FEF0E94F615089540E055
:102C10000E94F6150895882321F081508B3008F02A
:102C20008AE008950E940B16E82FF0E0EE0FFF1FD8
:102C3000E051FD4F818108950E940B16E82FF0E0CE
:102C4000EE0FFF1FE051FD4F8081817008951F93AB
:102C5000162F0E940B16E82FF0E0EE0FFF1FE05139
:102C6000FD4F80818160808311830E9400071F9146
:102C70000895FC0184910895860F911D0E943916D4
:102C8000089550E00E943605089570E0660F771FA2
:102C9000680F791F87ED91E042E00E944116809114
:102CA000D7019091D8010895BC0187ED91E042E0F1
:102CB0000E9441168091D7019091D8010895860F06
:102CC000911DBC0187ED91E042E00E944116809188
:102CD000D7019091D8010895860F911DBC0187ED11
:102CE00091E042E00E9441168091D7019091D80175
:102CF0000895CF93DF93EC01CE010E9456148823F0
:102D000051F0CE010E945C14882329F0CE0160E0CE
:102D10000E94AC13F1CFDF91CF910895CF93DF9351
:102D2000EC01CE010E944A13882329F0CE010E94B3
:102D3000791681E00BC0CE010E943314882329F05C
:102D4000CE010E948D13882361F780E0DF91CF913F
:102D50000895CF93DF93EC010E944518CE010E94A5
:102D6000791605C0CE010E948E16882349F0CE0147
:102D70000E9462148823B1F7CE010E94681481E09A
:102D8000DF91CF910895CF93DF93EC01CE010E94A4
:102D90008E16882321F4CE010E94A91609C0CE0107
:102DA0000E946214882391F7CE010E94681481E08A
:102DB000DF91CF9108951F93162F0E947A0B8117F0
:102DC00008F4812F1F9108951F93162F0E947F0BE7
:102DD000811708F4812F1F910895EF92FF921F939E
:102DE000CF93DF937C01162F0E94E513EC01133083
:102DF00021F1143028F4113059F0123039F417C091
:102E0000153059F11530E8F01630F9F080E02EC099
:102E10000E945014882331F0C7010E94E5130E94DC
:102E2000221824C0CE0161E00E94CA181FC0C70149
:102E30000E94E5130E94F01819C0C7010E94E51313
:102E400009C0C7010E94E5130DC00E94FF17882327
:102E500061F4CE010E94C31609C00E942218882383
:102E600021F4CE010E94A41801C081E0DF91CF912E
:102E70001F91FF90EF9008951F93162F0E94660BED
:102E8000612F0E9407161F9108951F93162F65E06A
:102E90000E946C16612F0E9445161F9108956623AB
:102EA00031F0642F0E9445170E94000E0895642F90
:102EB0000E9445170E94040E089564E00E943C168B
:102EC0000895FC01808191810E945D1708950F9300
:102ED0001F93FC018281833069F08F3019F08230BA
:102EE000A9F404C0CF010E94840B13C0CF010E943B
:102EF00061170FC0048115818081918163810E94D7
:102F00004517F8019183808381E003C0CF010E94BF
:102F1000980B1F910F9108951F93162F473719F49F
:102F20000E946A0B08C0483619F40E946F0B03C058
:102F3000642F0E943C17811708F4812F1F91089578
:102F4000DF92EF92FF920F931F93CF93DF93EC01E9
:102F5000D42EE22EF02E062F10E00DC0CE016E2DE5
:102F6000402F0E944F17FF2011F0180F03C01817B1
:102F700008F4182F0F5F0D1588F3812FDF91CF9183
:102F80001F910F91FF90EF90DF900895461758F42E
:102F9000489FC001112470E00E949725662311F418
:102FA00081E00895862F08950F93241710F060E0B4
:102FB00009C0861B421B809FC0011124642F70E052
:102FC0000E949725862F0F910895FC0180818631FC
:102FD00028F4833140F4813121F407C084528230D7
:102FE00010F080E0089581E00895A285B385FD0189
:102FF00001900020E9F731978E2F8A1B08951F93C7
:10300000CF93DF93EC018D89823010F410E004C07F
:10301000FE01E80FF11D14850E94C70DCE010E942C
:10302000DD0DCE010E94EF130E94CC0D812F60E0D8
:1030300070E00E94D60D86E10E94080EDF91CF91CC
:103040001F9108951F93CF93DF93EC018D898230F8
:1030500010F410E004C0FE01E80FF11D14850E9479
:10306000C70DCE010E94DD0DCE010E94EF130E941C
:10307000CC0D812F60E070E00E94D60D85E10E94AA
:10308000080EDF91CF911F910895FC018589823050
:1030900010F480E00895CF0160E00E940B1481E0FD
:1030A0000895CF93DF93EC016115710511F465E18B
:1030B00071E01E8A798368831E8681E08D8BCE0144
:1030C0006AE678E10E943219CE010E94A916DF91CA
:1030D000CF9108950E94401480E20E94080E81E082
:1030E0000895CF93DF93EC01CE010E9456148823FC
:1030F00069F0CE010E945C14882341F0CE0160E0AB
:103100000E94AC13CE010E944019EECFDF91CF9107
:103110000895CF93DF93EC01CE010E9454198823C8
:1031200029F0CE010E94711881E00BC0CE010E94EF
:103130003314882329F0CE010E948D13882361F770
:1031400080E0DF91CF910895CF93DF93EC01CE0122
:103150000E948918882391F4CE010E944019CE0163
:103160000E94711805C0CE010E948918882379F049
:10317000CE010E9462148823B1F705C0CE010E94DF
:103180006214882321F7CE010E94681481E0DF9148
:10319000CF9108951F93CF93DF93EC01162F0E94D8
:1031A000D2138823C9F0CE01612F0E94AC1388236B
:1031B00051F0CE010E946214882351F0CE010E948A
:1031C000C316882329F4CE010E94971380E004C01F
:1031D000CE010E94681481E0DF91CF911F91089584
:1031E0001F93CF93DF93EC011D890E9497138823CF
:1031F000B1F0CE010E948D13882389F08D89823031
:1032000010F41D8B0CC0CE010E942D14882311F4E4
:103210001D8B06C0CE010E94681481E001C080E0D1
:10322000DF91CF911F910895CF93DF93EC0188EA4E
:1032300092E0FE01099588EA92E060E00E94AC13FA
:10324000882369F0CE010E94141988EA92E00E9456
:103250004A138823B9F788EA92E00E948D13DF9120
:10326000CF910895FC01CB01208131813093A902D7
:103270002093A80221E02093BD020E941419089512
:10328000CF93DF93EC018D89823010F480E009C088
:10329000CE010E942D14682F6150CE010E940B14A4
:1032A00081E0DF91CF910895DC0155968C9155977F
:1032B000823068F08250FD01E80FF11D66856623BB
:1032C00031F06150CD010E940B1481E0089580E03F
:1032D00008952F923F924F925F926F927F928F92BA
:1032E0009F92AF92BF92CF92DF92EF92FF920F9395
:1032F0001F93DF93CF9300D00F92CDB7DEB74C0171
:10330000162FC42ED22E702E570187E0D80EFD2C1A
:10331000F694F694F69499EFD90EC4012D2D0E94DF
:10332000F219882399F548C0BB82AA82FD2C198125
:1033300011C0EA81FB810491C401612F4C2D22E070
:103340000E94D71E8A819B8101969B838A8398EF76
:10335000F90E185FE7E0EF1560F3FE2CF501E20DC2
:10336000F31DEE2071F01491062D10FF05C0C4016D
:10337000602F4C2D0E94CE1EFA9419F00F5F169507
:10338000F4CFA40CB51CC3947A9413C0F12FF95F49
:10339000F98327E0E22EED208D2D86958695869582
:1033A000282E3324880F880F880F612E680E4F2C2B
:1033B0005524772009F0B8CF0F900F900F90CF9140
:1033C000DF911F910F91FF90EF90DF90CF90BF9012
:1033D000AF909F908F907F906F905F904F903F90B5
:1033E0002F9008950F93FC014150040F4F5F94A953
:1033F00086A9841718F0091728F402C0091798F055
:10340000041788F46150260F6F5F93A985A986176A
:1034100018F0291718F005C0291728F080E02617A2
:1034200018F481E001C080E00F910895FC017783DA
:1034300066830895FC0162870895FC0164874587CF
:1034400008952BE23AE1FC01378726870895FC01B5
:10345000178616860895CF92DF92EF92FF920F9310
:103460001F938C01FC01D2840E94EB1EC82EF80130
:10347000E480F5808681978195838483C801618586
:103480000E94E81E2D2D2F5FC801F8016485458537
:103490000E94C01CC801F80160850E94E81EC80196
:1034A000F801648545852D2D0E94C01CF801F58228
:1034B000E482C8016C2D0E94E81E1F910F91FF90BD
:1034C000EF90DF90CF900895AF92BF92CF92DF92AE
:1034D000EF92FF920F93CF93DF937C01EB01042FC8
:1034E0005901403109F453C0413130F44A3059F0A8
:1034F0004F3009F055C030C0413109F44EC045315C
:1035000009F04EC00AC043E00E946A21C701BE0113
:1035100049E151E00E94A92143C0CA80DB804FE30A
:1035200051E00E94A921F6014481406BC701BE0110
:103530000E949921C701BE0141E00E949021C6016D
:10354000B701AE010E948D1F882381F1C701BE0122
:1035500040E00E94732124C041E00E947321C70112
:10356000BE0140E00E949021C701BE0141E80E94D7
:103570009921F501408146954695C701BE010E94FB
:103580009921C701BE0140E00E94732104C047E4B5
:1035900051E00E94A92181E009C043E551E0F9CF43
:1035A000C701BE01402F95010E94F81FDF91CF9106
:1035B0000F91FF90EF90DF90CF90BF90AF90089564
:1035C000FC01E60FF11D8491382F20E03196E49143
:1035D0002E0F311DC9010895FC01849108950E94A8
:1035E000EC1A882321F0823011F083E0089586E000
:1035F000089566E00E94E01A089568E00E94E01ACB
:103600000895FC013A96E4918E2F0895FC013B96B3
:10361000E4918E2F08959F92AF92BF92CF92DF9246
:10362000EF92FF920F931F93CF93DF93EC01C62E7F
:10363000FC80ED800F2D1E2D8F2D9E2D0E94EC1AEB
:10364000B82E8F2D9E2D0E94EF1A982E81E0B8166D
:1036500019F48FE0A82E02C0AA24AA948F2D9E2DC3
:103660000E94061BD82E80E68C1558F48F2D9E2DB7
:103670000E94FD1A009729F0F801E80FF91F81E672
:1036800014C080E48C1558F48F2D9E2D0E94F91AD9
:10369000009729F0F801E80FF91F81E406C08F2D8B
:1036A0009E2D0E94011BF8017196DC1408F445C0A0
:1036B000D81608F442C0282F492D50E094919F3F1E
:1036C00011F4319636C02C1509F02BC0BB2019F02F
:1036D00082E0B81681F484918B8B319684918C8B27
:1036E00032968491888B31968491898B319684911E
:1036F00035978A8B29C0892F8F7082508A8B92953B
:103700009F70998B31968491982F9F709C8B829596
:103710008F708B8B31968491329782958F70888BC6
:1037200013C03296849132978A21E80FF11DE40F7D
:10373000F51F2D1511F02F5FC1CF188A1B8A1C8A27
:10374000198A1A8AE0E0F0E0CF01DF91CF911F9152
:103750000F91FF90EF90DF90CF90BF90AF909F9030
:103760000895CF93DF93EC010E940B1B892B11F47A
:1037700080E001C08889DF91CF910895DC01149623
:10378000ED91FC911597309709F438C057968C91BC
:103790005797882339F43596849158968C93589787
:1037A00037960AC0813011F43F9601C03D9684914E
:1037B00058968C9358973196849159968C93599733
:1037C00058968C915897282F332727FD3095599676
:1037D0008C915997992787FD9095281B390B5A96FC
:1037E0008C915A97803441F0289F9001112496E0E3
:1037F000369527959A95E1F75B962C93089580E08E
:1038000008952FEF3BE1FC01368B258B0895FC01D9
:10381000818D089527E03CE1FC01368B258B0895CE
:10382000FC0180810895FC0184910895CF92DF927C
:10383000EF92FF920F931F93CF93DF93EC018B01D5
:103840007A01CB01FA010995D82E882311F420E0E2
:1038500021C0CE016D2D0E940B1BC988C1940F5F42
:103860001F4FC801F7010995882359F08889C80EB0
:10387000C801F7010995D82ECE016D2D0E940B1BB2
:10388000EECF80E2D81621F029898B89280F01C05C
:1038900028892C0D822FDF91CF911F910F91FF90DE
:1038A000EF90DF90CF90089540E15CE10E94161CFC
:1038B000089543E15CE10E94161C08950F931F9345
:1038C0008C01FB0160810E940B1BF80181891F9113
:1038D0000F9108950F931F938C01FB01E4916E2FBC
:1038E0000E940B1BF80181891F910F910895EF929F
:1038F000FF921F93CF93DF937C01EB0110E068816F
:10390000662341F0C7010E940B1BF7018089180F45
:103910002196F5CF812FDF91CF911F91FF90EF90EE
:103920000895EF92FF921F93CF93DF937C01EB01F9
:1039300010E0FE016491662341F0C7010E940B1B59
:10394000F7018089180F2196F4CF812FDF91CF9155
:103950001F91FF90EF900895CF93DF93EC018C813E
:103960009D818617970749F07D836C83CE010E9465
:10397000BE1B8FEF9BE19E8B8D8BDF91CF910895C6
:103980004F925F926F927F928F929F92AF92BF926F
:10399000CF92DF92EF92FF920F931F93CF93DF931B
:1039A0007C01062FB42E622F0E940B1BEC010097A6
:1039B00011F480E03EC0F701C480D580138974887B
:1039C0008188800E82899B2C9718981AC701682DD0
:1039D000492D212F072D0E94F219882341F1C6019C
:1039E0000E94EF1A67E0A62EA10EA694A694A694B4
:1039F0006E01C80ED11CBB244A2C552411C0FE01F7
:103A00000491C701612F462D20E00E94D71E219608
:103A1000185F9E012C192A1590F3C40CD51CB39481
:103A20006B2C690CB71418F4E601182DF2CFF701CE
:103A30008089DF91CF911F910F91FF90EF90DF90E0
:103A4000CF90BF90AF909F908F907F906F905F903E
:103A50004F900895DF92EF92FF920F931F93CF93B1
:103A6000DF938C01D62EE42EE901DC015596ED9111
:103A7000FC9156970995E80EFF24FE01249122231C
:103A800049F0C8016D2D4E2D0E94C01CD80EF80EB5
:103A90002196F3CF8F2DDF91CF911F910F91FF9042
:103AA000EF90DF900895DF92EF92FF920F931F93B4
:103AB000CF93DF938C01D62EE42EE901DC015596DD
:103AC000ED91FC9156970995E80EFF2408C0C801B6
:103AD0006D2D4E2D0E94C01CD80EF80E2196288107
:103AE0002223A9F78F2DDF91CF911F910F91FF9086
:103AF000EF90DF900895DF92EF92FF920F931F9364
:103B00008C01E62EF42ED22EDC015596ED91FC911F
:103B100056970995F80EC8016E2D4F2D2D2D0E9438
:103B2000C01C1F910F91FF90EF90DF900895EF92CE
:103B3000FF920F931F938C017B01DC01D196ED91D5
:103B4000FC91D29782E00995D701ED91FC91C801D3
:103B5000B7014AE020E030E00995F82ED801D1966F
:103B6000ED91FC91D29783E00995D801D196ED9122
:103B7000FC91D29780E009958F2D1F910F91FF90B6
:103B8000EF900895EF92FF920F931F938C017B01AA
:103B9000DC01D196ED91FC91D29782E00995D80194
:103BA000D196ED91FC91D29781E00995D701ED91E5
:103BB000FC91C801B70144E120E030E0099598018B
:103BC0002D5C3F4FD701ED91FC91C801B70147E152
:103BD0000995D801D196ED91FC91D29780E0099595
:103BE0001F910F91FF90EF900895FF920F931F93F5
:103BF000CF93DF93EC018B01E9A9FAA982E0099543
:103C0000E9A9FAA981E00995D801ED91FC91CE01CD
:103C1000B80145E120E030E00995F82E882351F005
:103C20009E012D5C3F4FD801ED91FC91CE01B80172
:103C300047E10995E9A9FAA980E009958F2DDF915F
:103C4000CF911F910F91FF9008950F931F93FC0147
:103C5000DB01448F258F0D911C9142E37C969F01DF
:103C6000F80109951F910F910895EF920F93CF934B
:103C7000DF93FC01448F258F078FE68EEB01A8812F
:103C8000B9814BE37C969F01FD010995DF91CF91AE
:103C90000F91EF900895DF93CF930F92CDB7DEB7DA
:103CA000FB01A081B18146E49E012F5F3F4FFD01E2
:103CB000099589810F90CF91DF910895DF93CF937C
:103CC0000F92CDB7DEB7FB01A081B18147E49E0121
:103CD0002F5F3F4FFD01099589810F90CF91DF91B3
:103CE0000895FB01A081B18148E420E030E0FD01AE
:103CF000099508950F931F938C01DC0112966D9125
:103D00007C9113970E944B1EF8018083628173811E
:103D1000C8010E945E1ED80111968C9311971296CD
:103D20006D917C911397C8010E94711EF8018387E1
:103D30000280F381E02DA081B181C801BF0147E17C
:103D40000D5C1F4F9801FD0109951F910F9108957A
:103D5000CF93DF93EC016A817B810E94971D8823BA
:103D600021F0CE010E947A1E81E0DF91CF9108956B
:103D7000FC01628173810E94C21D0895CF93DF937D
:103D8000EC01EE85FF85309709F009956A817B810A
:103D9000CE010E94F51DDF91CF910895FC01362FD1
:103DA000242F62817381432F0E94251E0895EF9274
:103DB0000F93FC01362F542FA22FE02E62817381C6
:103DC000432F252F0A2F0E94351E0F91EF90089543
:103DD000FC0160A30895FC0180A10895FC01838586
:103DE000883211F48FEF0895823011F081E0089548
:103DF00083E0089580E008951F93CF93DF93EC0153
:103E00001D821C821F821E82198681E0888782E2C1
:103E10008A871F861E86FE01B39680E09FEF9193EE
:103E20008F5F8E30E1F711E018A3CE010E94011CD4
:103E30001F8B188E198E80E48A8F1B8E8BE591E282
:103E40009AAB89ABDF91CF911F9108958F929F928A
:103E5000AF92BF92CF92EF92FF920F931F935C01AC
:103E60004B01142FF22E0E94FC1EF50193828282D8
:103E700017A3F0A605A3E4A2C3A2C5010E94A81E31
:103E80001F910F91FF90EF90CF90BF90AF909F90B8
:103E90008F900895FC01A681B78185819D01280F2F
:103EA000311DC9011D92A817B907E1F70895DC017A
:103EB000FB01108212968C911297818315968C913A
:103EC00015978150828313968C9183830895DC012A
:103ED000FB0121818381813021F0833029F0322F51
:103EE00005C0322F385F02C0322F285040E01396B1
:103EF0008C911397821708F041E050E012968C9154
:103F0000381708F051E090E0321708F491E0892F5B
:103F10008423942B9523892B0895FC01CB012681C2
:103F20003781BA0145810E94A2210895FC01A68132
:103F3000B7818281481B477081E090E001C0880F03
:103F40004A95EAF7A60FB11D9C91222311F0982BF8
:103F500002C0809598239C930895FC01DB01119683
:103F60004C9111978281481760F08381841748F043
:103F70006C918581681728F4CF0114962C910E94CA
:103F8000961F0895CF92DF92FF920F931F93CF93C6
:103F9000DF936C01EB01FA808B81813061F081301D
:103FA00028F0823051F0833021F40AC000E011E0A3
:103FB00009C000E006C001E004C000E01FEF02C03D
:103FC0000FEF10E0F7FE04C0C601BE010E94AD1F56
:103FD0008881810F88838981800F8983FF0C91F705
:103FE000DF91CF911F910F91FF90DF90CF900895B7
:103FF0000F931F93CF93DF93FB018901C281D3817C
:104000004233D1F0433338F4453111F1473149F1AE
:10401000443189F516C0463449F1473449F14B33F0
:1040200051F5CE01B9010E94671F882321F1CE010D
:10403000B8010E94C21F1FC0CE01B9010E94AD1F6E
:104040001AC0CE010E944A1FCE010E94DB2213C07B
:10405000CE010E94E222882379F0CE010E944A1FFD
:104060000AC0CE01B9010E94571F05C08D8101C051
:104070008981F801808381E0DF91CF911F910F91B9
:104080000895CF92DF92EF92FF920F931F93CF93F9
:10409000DF93EC01C62ED42EE22EF42E122F0AC08E
:1040A000CE016C2D4F2D21E00FEF0E94D71E18502E
:1040B00088E0F80E1830A0F79E2D97704E2D487F9F
:1040C0004D0D992381F087E098279F5F97700FEF40
:1040D00010E002C0000F111F9A95E2F7CE016C2D7F
:1040E00021E00E94D71EDF91CF911F910F91FF9089
:1040F000EF90DF90CF900895EF92FF920F931F9370
:10410000CF93DF93EC01162FF42EE22E21E00E2D3B
:104110000E94F219882331F0CE01612F4F2D2E2DF0
:104120000E944120DF91CF911F910F91FF90EF905E
:104130000895CF92DF92EF92FF920F931F93CF9348
:10414000DF93EC01D62EC42EE22EF62E122F0AC0DB
:10415000CE016F2D4C2D20E00FEF0E94D71E18507E
:1041600088E0F80E1830A0F79E2D97706E2D687FAE
:104170006D0D992381F087E098279F5F97700FEF6F
:1041800010E002C0000F111F9A95E2F7CE014C2DEE
:1041900020E00E94D71EDF91CF911F910F91FF90D9
:1041A000EF90DF90CF900895EF92FF920F931F93BF
:1041B000CF93DF93EC01E62E142FF22ECE016E2D5D
:1041C000412F2F2D0E9499201F5F0150B9F7DF91D9
:1041D000CF911F910F91FF90EF900895DF92EF9292
:1041E000FF920F931F93CF93DF93EC01162FF42EC2
:1041F000E22E0E94F219882331F0CE01612F4F2D5B
:104200002E2D0E94D420DF91CF911F910F91FF900E
:10421000EF90DF900895DF92EF92FF920F931F933C
:10422000CF93DF93EC01F62E142FD22EE02E0E94B6
:10423000F2198823E1F0CE016F2D412F2D2D0E9420
:104240009920CE016F2D412F2E2D0E9441206F2DE0
:1042500061506D0DCE01412F2E2D0E944120115035
:104260001E0DCE016F2D412F2D2D0E949920DF9123
:10427000CF911F910F91FF90EF90DF900895EF92F3
:10428000FF920F931F93CF93DF93EC01162FF42E21
:10429000E22E01E00E94F219882331F0CE01612F55
:1042A0004F2D2E2D0E949920DF91CF911F910F91BC
:1042B000FF90EF9008950895CF92EF920F93FC0135
:1042C00013AE14AE15AE04960E94261F0F91EF9008
:1042D000CF900895FB010480F581E02D61E020E09E
:1042E00030E009950895FB010480F581E02D63E03D
:1042F00020E030E009950895FB010480F581E02D70
:1043000064E040E020E030E009950895FB0104807E
:10431000F581E02D64E041E020E030E0099508956A
:10432000FB010480F581E02D62E020E030E009959A
:104330000895FB010480F581E02D65E020E030E088
:1043400009950895FB010480F581E02D66E009954B
:104350000895CF92DF92EF92FF920F931F93CF9326
:10436000DF937C01EB016A0100E0F6011491002368
:1043700061F41F3F11F401E045C0C701BE01412FA8
:104380000E9499218823F1F541C01F3F41F4C701E4
:10439000BE014FEF0E949921882399F537C01E3F37
:1043A00011F481E034C0103F60F5103E38F01F700A
:1043B000C701BE01412F0E94902123C0103D38F05B
:1043C0001F70C701BE01412F0E9473211AC0103C0B
:1043D00080F0C701BE010E947C211295107F1E5FF4
:1043E000812F90E00E94D122C701BE010E94862148
:1043F00004C01E3B30F417FD04C0812F90E00E94E2
:10440000D12200E00894C11CD11CAFCF80E0DF9125
:10441000CF911F910F91FF90EF90DF90CF90089573
:10442000282F60910A0350910E03409109033091A7
:104430000D03A0910B03B0910C03E0910703F091E1
:1044400008038FB780930603F89498E027FF03C012
:104450008C91862B02C08C9185238C938081842B38
:1044600080839150808183238083992311F0220FD0
:10447000EDCF809106038FBF08951F93CF93DF93F5
:10448000EC01142F643009F458C0653050F46230E8
:1044900009F47EC0633008F056C0613009F07CC07A
:1044A0000AC0663009F460C0663008F459C067304D
:1044B00009F072C062C00E94F822CE0164E040E0C0
:1044C0000E941023CE0165E040E00E9410232FA13E
:1044D00088A5482F50E0FA01E752F64FE491F0E04A
:1044E000EE0FFF1FEB53F64F8591949190930C03C1
:1044F00080930B0330E0F901E752F64FE491F0E0CE
:10450000EE0FFF1FEB53F64F8591949190930803A4
:10451000809307034351564FFA01849180930A0315
:104520002351364FF90124912093090320952093BC
:104530000D03809580930E032FC08BA18F3F61F1F7
:10454000CE0160E026C0442319F462E041E022C0BD
:1045500064E040E00E941023CE0162E040E01AC017
:10456000842F0E94102218C0E90104C089910E9482
:10457000102211501123D1F70FC0E90106C0FE012E
:1045800084910E941022219611501123C1F704C07A
:1045900061E0412F0E94102381E0DF91CF911F91B4
:1045A00008952EE93FE004C0F9013197F1F7019732
:1045B0000097D1F70895FC01128280818150838396
:1045C00014820895FC0120818281820F828391816F
:1045D000891710F080E0089584818F5F8483838140
:1045E000820F891710F0892F8150838381E008950D
:1045F0001F93CF93DF93EC01A39610E088818F3F48
:1046000039F061E00E947824888161E00E94B7243B
:104610001F5F21961D3091F7DF91CF911F91089573
:10462000FC01E60FF11D83A18F3F19F0642F0E945A
:10463000B72408951F920F920FB60F9211242F9353
:104640003F938F939F93AF93BF9380915F0290911D
:104650006002A0916102B091620230916302019602
:10466000A11DB11D232F2D5F2D3720F02D57019651
:10467000A11DB11D2093630280935F02909360029D
:10468000A0936102B093620280915B0290915C0200
:10469000A0915D02B0915E020196A11DB11D8093B3
:1046A0005B0290935C02A0935D02B0935E02BF91A7
:1046B000AF919F918F913F912F910F900FBE0F90CF
:1046C0001F9018959B01AC017FB7F89480915B0215
:1046D00090915C02A0915D02B0915E0266B5A89BCC
:1046E00005C06F3F19F00196A11DB11D7FBFBA2F04
:1046F000A92F982F8827860F911DA11DB11D62E05B
:10470000880F991FAA1FBB1F6A95D1F7BC012DC046
:10471000FFB7F89480915B0290915C02A0915D02DA
:10472000B0915E02E6B5A89B05C0EF3F19F0019677
:10473000A11DB11DFFBFBA2FA92F982F88278E0F5B
:10474000911DA11DB11DE2E0880F991FAA1FBB1F7B
:10475000EA95D1F7861B970B885E9340C8F22150EB
:1047600030404040504068517C4F21153105410593
:10477000510571F60895789484B5826084BD84B53E
:10478000816084BD85B5826085BD85B5816085BD4C
:10479000EEE6F0E0808181608083E1E8F0E0108265
:1047A000808182608083808181608083E0E8F0E0A6
:1047B000808181608083E1EBF0E080818460808390
:1047C000E0EBF0E0808181608083EAE7F0E08081C7
:1047D0008460808380818260808380818160808327
:1047E0008081806880831092C1000895982F8E3058
:1047F00008F09E50977080916B018295880F880F0A
:10480000807C892B80937C0080917A0080648093E7
:104810007A0080917A0086FDFCCF2091780040914B
:104820007900942F80E030E0282B392BC9010895BE
:104830001F93CF93DF93182FEB0161E00E94782440
:10484000209709F44AC0CF3FD10509F449C0E12FB0
:10485000F0E0EF5FF54F84918330C1F0843028F4AD
:10486000813051F08230B1F50CC0863019F18730BB
:1048700049F1843079F514C084B5806884BDC7BD22
:1048800033C084B5806284BDC8BD2EC080918000D5
:10489000806880938000D0938900C093880024C0F2
:1048A00080918000806280938000D0938B00C093C1
:1048B0008A001AC08091B00080688093B000C093D5
:1048C000B30012C08091B00080628093B000C093AA
:1048D000B4000AC0C038D1051CF4812F60E002C0CA
:1048E000812F61E00E94B724DF91CF911F9108953D
:1048F000CF93DF93482F50E0CA018351964FFC01BC
:1049000034914752564FFA018491882369F190E01F
:10491000880F991FFC01E554F64FA591B491FC0155
:10492000EB53F64FC591D491662351F42FB7F89409
:104930008C91932F909589238C93888189230BC028
:10494000623061F42FB7F8948C91932F909589235E
:104950008C938881832B88832FBF06C09FB7F894E0
:104960008C91832B8C939FBFDF91CF910895482F1B
:1049700050E0CA018F5F954FFC012491CA01835119
:10498000964FFC0194914752564FFA0134913323CC
:1049900009F440C0222351F1233071F0243028F46F
:1049A0002130A1F0223011F514C02630B1F02730AB
:1049B000C1F02430D9F404C0809180008F7703C007
:1049C000809180008F7D8093800010C084B58F77A8
:1049D00002C084B58F7D84BD09C08091B0008F77FF
:1049E00003C08091B0008F7D8093B000E32FF0E092
:1049F000EE0FFF1FEB53F64FA591B4912FB7F8942C
:104A0000662321F48C919095892302C08C91892B87
:104A10008C932FBF0895682F70E0CB018F5F954F67
:104A2000FC012491CB018351964FFC0144916752C4
:104A3000764FFB019491992319F420E030E03CC0BB
:104A4000222351F1233071F0243028F42130A1F0D9
:104A5000223011F514C02630B1F02730C1F02430D7
:104A6000D9F404C0809180008F7703C080918000CA
:104A70008F7D8093800010C084B58F7702C084B58D
:104A80008F7D84BD09C08091B0008F7703C0809175
:104A9000B0008F7D8093B000892F90E0880F991F20
:104AA0008153964FFC01A591B4918C9120E030E0A8
:104AB000842311F021E030E0C9010895CF93DF9302
:104AC0000E94BB230E94BB06C0E0D0E00E94E0052C
:104AD0002097E1F30E940000F9CFCF92DF92EF928E
:104AE000FF920F931F93CF93DF937C016B018A0199
:104AF000C0E0D0E00FC0D6016D916D01D701ED91FE
:104B0000FC910190F081E02DC7010995C80FD91FD4
:104B1000015010400115110571F7CE01DF91CF91C1
:104B20001F910F91FF90EF90DF90CF900895AA1BF7
:104B3000BB1B51E107C0AA1FBB1FA617B70710F088
:104B4000A61BB70B881F991F5A95A9F780959095BA
:104B5000BC01CD010895EE0FFF1F0590F491E02DEB
:064B60000994F894FFCF58
:104B660072317431005265642073656C65637465D7
:104B760064002D317C31573634483634004772652F
:104B8600656E2073656C656374656400426C75655B
:104B96002073656C656374656400723174317736B1
:104BA6003066380052656400477265656E00426C77
:104BB60075650010121113FF010101E51708400089
:104BC600000080DB01641A5D013D22010000000047
:0C4BD60097056D250000000097056D2577
:00000001FF
