:100000000C9402010C9424010C9424010C942401FE
:100010000C9424010C9424010C9424010C942401CC
:100020000C9424010C9424010C9424010C942401BC
:100030000C9424010C9424010C9424010C942401AC
:100040000C9424010C9424010C9424010C9424019C
:100050000C9424010C9424010C9424010C94970218
:100060000C9424010C9424010C9424010C9424017C
:100070000C9424010C9424010C9424010C9424016C
:100080000C9424010C9424010C9424010C9424015C
:100090000C9424010C9424010C9424010C9424014C
:1000A0000C9424010C9424010C9424010C9424013C
:1000B0000C9424010C9424010C9424010C9424012C
:1000C0000C9424010C9424010C9424010C9424011C
:1000D0000C9424010C9424010C9424010C9424010C
:1000E0000C94240100002100240027002A002D0088
:1000F0003000330001010000040107010A01000083
:100100002200250028002B002E00310034000201BF
:100110000000050108010B0100002000230026005B
:1001200029002C002F00320000010000030106010D
:10013000090105050505070508080808020202026D
:100140000A0A080804040404010101010101010173
:100150000303030303030303040707070C0C0C0C3E
:100160000C0C0C0C02020202060606060606060627
:100170000B0B0B0B0B0B0B0B0102102020080810B4
:100180002040102040800201020108040201010207
:1001900004081020408080402010080402018004E0
:1001A000020180402010080402010804020101023B
:1001B0000408102040800102040810204080000044
:1001C000090A02080B0C0D070603040100000000D9
:1001D000000000000000000000000000000000001F
:1001E0000000000000000000000011100F000000DF
:1001F00000000000000000000000000000000000FF
:100200000000000011241FBECFEFD1E2DEBFCDBF42
:1002100000E00CBF12E0A0E0B2E0EAEAF9E000E0A2
:100220000BBF02C007900D92AA31B107D9F71BBED0
:1002300012E0AAE1B2E001C01D92AF32B107E1F7CE
:100240000E949D040C94D3040C9400009C018FEF39
:100250009FEF90930B0280930A0290930D0280937C
:100260000C0290930F0280930E02909311028093E0
:1002700010022A3031052CF430930B0220930A022D
:100280000895243631055CF4C9016AE070E00E94EB
:10029000AC0470930D0260930C02C9011CC083E092
:1002A000283E38070CF5C90164E670E00E94AC04F2
:1002B00070930F0260930E02C90164E670E00E9421
:1002C000AC049C016AE070E00E94AC0470930D02E3
:1002D00060930C02C9016AE070E00E94AC04909344
:1002E0000B0280930A02089587E22031380774F5E3
:1002F000C90168EE73E00E94AC0470931102609330
:100300001002C90168EE73E00E94AC049C0164E62F
:1003100070E00E94AC0470930F0260930E02C9015A
:1003200064E670E00E94AC049C016AE070E00E9408
:10033000AC0470930D0260930C02C9016AE070E096
:100340000E94AC0490930B0280930A0208951F93BD
:10035000182F89E060E00E94280488E06AE040E00D
:10036000212F0E945B0489E061E00E9428041F9114
:10037000089580E00E94A70108950F931F938C01B8
:1003800084E061E00E94280485E061E00E94280486
:1003900086E061E00E94280487E061E00E94280472
:1003A000000F111F0E5E1D4FF801808160E00E945A
:1003B00028040E94B9011F910F9108950E942601FF
:1003C000E0912202F0912302EE0FFF1FE65FFD4F46
:1003D0000190F081E02D8FEFEF3FF80719F40E94B4
:1003E000B9010895E050FE4F80810E94A701089551
:1003F000AF92BF92CF92DF92EF92FF920F931F9333
:100400000E94ED027B018C010E94DF025B016C0106
:100410000E94B90180911A0290911B02A0911C02C6
:10042000B0911D02A8019701281B390B4A0B5B0BE9
:100430002B3031054105510538F1E0921A02F09256
:100440001B0200931C0210931D02809122029091C6
:100450002302049721F41092230210922202809129
:100460002202909123020E94BD018091240290916A
:1004700025020E94DE0180912202909123020196C2
:10048000909323028093220280911E0290911F027A
:10049000A0912002B0912102A6019501281B390BE1
:1004A0004A0B5B0BDA01C901855F9140A040B04067
:1004B000C0F0A0921E02B0921F02C0922002D09201
:1004C00021028091240290912502019690932502A9
:1004D000809324028051974221F4109225021092B9
:1004E00024021F910F91FF90EF90DF90CF90BF906B
:1004F000AF90089584E061E00E94750385E061E0BB
:100500000E94750386E061E00E94750387E061E068
:100510000E94750389E061E00E94750388E061E054
:100520000E9475038AE061E00E94750308951F929E
:100530000F920FB60F9211242F933F938F939F9397
:10054000AF93BF9380912A0290912B02A0912C022D
:10055000B0912D0230912E020196A11DB11D232FC5
:100560002D5F2D3720F02D570196A11DB11D209331
:100570002E0280932A0290932B02A0932C02B09318
:100580002D028091260290912702A0912802B0911D
:1005900029020196A11DB11D809326029093270286
:1005A000A0932802B0932902BF91AF919F918F91A0
:1005B0003F912F910F900FBE0F901F9018958FB7FE
:1005C000F89420912A0230912B0240912C025091F4
:1005D0002D028FBFB901CA0108959FB7F8942091E9
:1005E000260230912702409128025091290286B5B7
:1005F000A89B06C08F3F21F02F5F3F4F4F4F5F4FAB
:100600009FBF542F432F322F2227280F311D411D0A
:10061000511D82E0220F331F441F551F8A95D1F7C9
:10062000B901CA010895789484B5826084BD84B507
:10063000816084BD85B5826085BD85B5816085BDDD
:10064000EEE6F0E0808181608083E1E8F0E01082F6
:10065000808182608083808181608083E0E8F0E037
:10066000808181608083E1EBF0E080818460808321
:10067000E0EBF0E0808181608083E1E9F0E080815F
:1006800082608083808181608083E0E9F0E0808106
:1006900081608083E1EAF0E08081826080838081F4
:1006A00081608083E0EAF0E0808181608083E1E224
:1006B000F1E0808182608083808181608083E0E2DC
:1006C000F1E0808181608083EAE7F0E080818460EE
:1006D000808380818260808380818160808380814B
:1006E000806880831092C1000895CF93DF93482FD4
:1006F00050E0CA0188589E4FFC0134914E5C5E4F19
:10070000FA018491882369F190E0880F991FFC0118
:10071000EC51FF4FA591B491FC01E250FF4FC59100
:10072000D491662351F42FB7F8948C91932F909520
:1007300089238C93888189230BC0623061F42FB7A1
:10074000F8948C91932F909589238C938881832B97
:1007500088832FBF06C09FB7F8948C91832B8C930E
:100760009FBFDF91CF910895893009F449C08A3045
:10077000A0F4843051F1853040F4823079F1833037
:1007800000F5813009F063C026C0873079F18830E8
:1007900098F5863009F05BC025C08D3009F442C061
:1007A0008E3028F48B30B1F18C30C0F52DC0803103
:1007B00009F442C0813109F445C08F3009F047C0C7
:1007C00037C0809180008F7703C0809180008F7D3B
:1007D00080938000089584B58F7702C084B58F7DA3
:1007E00084BD08958091B0008F7703C08091B000E0
:1007F0008F7D8093B0000895809190008F7707C01F
:10080000809190008F7D03C080919000877F8093BE
:10081000900008958091A0008F7707C08091A0007C
:100820008F7D03C08091A000877F8093A0000895F2
:10083000809120018F7703C0809120018F7D80936C
:100840002001089580912001877F809320010895E1
:10085000FF920F931F93F62E482F50E0CA01825447
:100860009E4FFC012491CA0188589E4FFC011491AF
:100870004E5C5E4FFA0104910023C9F0222319F067
:10088000822F0E94B403E02FF0E0EE0FFF1FE25032
:10089000FF4FA591B4919FB7F894FF2021F48C915C
:1008A0001095812302C08C91812B8C939FBF1F9147
:1008B0000F91FF900895BF92CF92DF92EF92FF9237
:1008C0000F931F93CF93DF93E82EF62EB42EC7E03D
:1008D000D0E0022F10E087E0C82ED12CBB2059F4C5
:1008E000B6016C1B7D0BC80102C0959587956A9572
:1008F000E2F7BC0107C0B8010C2E02C075956795E0
:100900000A94E2F761708E2D0E9428048F2D61E019
:100910000E9428048F2D60E00E94280421979FEFF9
:10092000CF3FD907D9F6DF91CF911F910F91FF905B
:10093000EF90DF90CF90BF900895CF93DF930E9408
:1009400013030E947A02C0E0D0E00E94F8012097D1
:10095000E1F30E940000F9CF97FB092E07260AD089
:1009600077FD04D00CD006D000201AF47095619564
:100970007F4F0895F6F7909581959F4F0895AA1B94
:10098000BB1B51E107C0AA1FBB1FA617B70710F07A
:10099000A61BB70B881F991F5A95A9F780959095AC
:0A09A000BC01CD010895F894FFCFCB
:1009AA00FC60DAF266B6BEE0FEE6FFFFFFFFFFFF7D
:0A09BA00FFFF04000500060007001F
:00000001FF
