:100000000C947D0E0C94A50E0C94A50E0C94A50ECC
:100010000C94A50E0C94A50E0C94A50E0C94A50E94
:100020000C94A50E0C94A50E0C94A50E0C94A50E84
:100030000C94A50E0C94A50E0C94A50E0C94A50E74
:100040000C94AD170C94A50E0C94A50E0C94A50E53
:100050000C94A50E0C94A50E0C94A50E0C94A50E54
:100060000C94A50E0C94A50EFFD0FFE0FFD1FFCF9E
:10007000A3A0C8602CFF322EFF322FFF3226A681AC
:1000800018AFFF64A5FF64FF64A4FFD0FFFEFFE08C
:10009000FFD11001FFFEFFE0FFD1AC00AEA5FFD104
:1000A000FFFEFFE0FFD1A4AFFF32FFD1FFFE01064C
:1000B0000A00FE070136026820FFFE08FE07FE0A5E
:1000C000006022176780808080800080163363A0E4
:1000D000A0A00257675050F850F8505002576720C0
:1000E00070A07028702002576748A8502050A89030
:1000F00002576740A0A040A89068261363808080C4
:10010000123767204080808040201237678040206F
:10011000202040800355658850F85088035565209D
:1001200020F82020113363604080055161F81133BD
:100130006340E04002576708081020408080025763
:1001400067205088888850200257672060A02020B0
:1001500020F8025767708808304080F8025767F827
:1001600008103008887002576710305090F810104F
:10017000025767F880B0C80888700257673040801F
:10018000B0C88870025767F8081010204040025726
:1001900067708888708888700257677088986808C8
:1001A000106011376740E0400040E0401137674081
:1001B000E0400060408012476710204080402010DF
:1001C000045363F800F812476780402010204080F5
:1001D00002576770881020200020025767708898A7
:1001E000A8B0807002576720508888F88888025726
:1001F00067F04848704848F00257677088808080F0
:100200008870025767F04848484848F0025767F836
:100210008080F08080F8025767F88080F0808080CE
:10022000025767708880809888700257678888882E
:10023000F8888888123767E04040404040E0025725
:1002400067381010101090600257678890A0C0A007
:100250009088025767808080808080F80257678886
:1002600088D8A88888880257678888C8A898888806
:1002700002576770888888888870025767F0888876
:10028000F08080800158687088888888A87008028B
:100290005767F08888F0A090880257677088807050
:1002A000088870025767F820202020202002576716
:1002B0008888888888887002576788888850505056
:1002C00020025767888888A8A8D888025767888836
:1002D00050205088880257678888502020202002AC
:1002E0005767F80810204080F8123767E080808058
:1002F0008080E0025767808040201008081237672E
:10030000E02020202020E006536320508801516126
:10031000F828226280400255657008788878025774
:10032000678080B0C888C8B00255657088808870C2
:10033000025767080868988898680255657088F8B9
:100340008070025767304840F0404040005767785F
:100350008888780888700257678080B0C888888845
:100360001237674000C0404040E01049691000303B
:1003700010101090906002576780808890E09088FD
:10038000123767C04040404040E0025565D0A8A801
:10039000A888025565B0C888888802556570888825
:1003A0008870005767B0C888C8B0808000576768F9
:1003B000988898680808025565B0C8808080025502
:1003C0006570807008F00257674040F04040483048
:1003D000025565888888986802556588885050203D
:1003E0000255658888A8A850025565885020508815
:1003F00000576788889868088870025565F810204B
:1004000040F8124767304020C020403022176780F4
:10041000808080808080124767C02040304020C0AC
:1004200006536348A890FFFFFFFFFFFFFFFFFFFF9A
:10043000FFFFFFFFFFFFFFFFFFFFFFFFFFFFFFFFCC
:10044000FFFFFFFFFFFFFF0A0060221767800080A9
:10045000808080800157672078A0A0A07820025774
:1004600067304840E04048B0025565887050708859
:1004700001586888885020F8202020221767808043
:1004800080008080800158687080E0904838087053
:10049000193161A00257677088A8C8A888701346F0
:1004A000667090B05000F0026565244890482414AE
:1004B0004262F010154161F00257677088E8C8C8C1
:1004C0008870095161F816336340A04002566620D7
:1004D00020F82020F815456560902040F01545650E
:1004E000E0106010E028226240800156668888880B
:1004F000C8B08002576778E8E86828282825116185
:1005000080202262408015356540C04040E013469F
:10051000666090906000F002656590482448900104
:10052000696940C04040E40C143C0401696940C062
:100530004040E81404081C015969C0204020C81834
:1005400028780802576720002020408870025868E9
:100550004020708888F88888025868102070888841
:10056000F888880258682050708888F8888802586F
:100570006848B0708888F888880258685000708889
:1005800088F888880258682050708888F88888021F
:1005900067673C50909CF0909C00596970888080FF
:1005A000808870204002586840F88080F08080F891
:1005B00002586810F88080F08080F802586820F8AF
:1005C0008080F08080F802586850F88080F0808049
:1005D000F81238688040E040404040E0123868201F
:1005E00040E040404040E012386840A0E0404040D9
:1005F00040E0123868A000E040404040E002576709
:10060000F04848E84848F0025868285088C8A89838
:1006100088880258684020708888888870025868E6
:1006200010207088888888700258682050708888E8
:1006300088887002586828507088888888700258A6
:1006400068500070888888887002556588502050EE
:1006500088025767709898A8C8C8700258684020E8
:1006600088888888887002586810208888888888D8
:100670007002586820500088888888700258685036
:1006800000888888888870025868102088885020E0
:10069000202002576780F088F080808002576770C2
:1006A0008890A09088B00258684020007008788830
:1006B00078025868102000700878887802586820FE
:1006C00050007008788878025868285000700878C0
:1006D0008878025767500070087888780258682038
:1006E0005020700878887802656578147C907C00CA
:1006F00057677088808870204002586840200070DA
:1007000088F880700258681020007088F8807002A5
:1007100058682050007088F8807002576750007049
:1007200088F88070123868804000C0404040E01275
:100730003868408000C0404040E012386840A00067
:10074000C0404040E0123767A000C0404040E00297
:100750005767C0307088888870025868285000B089
:10076000C88888880258684020007088888870028D
:1007700058681020007088888870025868205000DF
:10078000708888887002586828500070888888703F
:10079000025767500070888888700355652000F8FC
:1007A00000200255657898A8C8F0025868402000DB
:1007B0008888889868025868102000888888986817
:1007C000025868205000888888986802576750004F
:1007D00088888898680059691020888898680888EF
:1007E0007000586880F0888888F0808000596950CF
:1007F0000088889868088870001F1FF1F00F046552
:1008000008D320FFF80FF010F00E0E1C11FAF8E0DC
:100810001CF03CF87C7CF83FF01FE00FC00FC01FBD
:10082000E03FF07CF8F87CF03CE01C10102011F95F
:10083000F7F00FF81FFC3FFE7F7FFE3FFC1FF80F15
:10084000F00FF01FF83FFC7FFEFE7FFC3FF81FF02B
:100850000F0E0E1C11F3F2000C003C00F803F80F11
:10086000F03FF003E007E00EC01CC038807080E06D
:1008700000400010102011F2F10007001F007F015E
:10088000FE07FE1FFC3FFC3FF807F80FF01FF03E8D
:10089000E07CE0F84070002000080A0A11FDFFFF2C
:1008A00000FF181818185A3C180A0C1811FCFEFF03
:1008B000C0FFC0FFC0FFC0FFC01E001E007F807FC2
:1008C000807F803F001E00080A0A11FDFF183C5A75
:1008D00018181818FF00FF0A0C1811FCFE0C001E57
:1008E000007F807F807F801E001E00FFC0FFC0FF52
:1008F000C0FFC0FFC010081011F2FB010007C08844
:1009000060FFFF001800200040FFC010091211F224
:10091000FB07000FC09FE0FFFFFFFFFFFFFFF8FF97
:10092000E0FFC00D0E1C11FAF8E23822202220222E
:1009300020FFF8A228A228A228A228FFF82220221D
:10094000202220E2380F102011F9F7FBBEFBBEFB7E
:10095000BE3BB8FFFEFFFEFFFEFBBEFBBEFFFEFF81
:10096000FEFFFE3BB8FBBEFBBEFBBE0E0E1C110025
:10097000FFC000C000C410C420C440C480C500C66D
:1009800000C7F0C000C000C000FFFCFFFC1010203A
:1009900011FFFEF000F000F70CF71CF738F770F7C6
:1009A000E0F7C0F7FCF7FCF7FCF000FFFFFFFFFFEC
:1009B000FFFFFF0E0E1C11F3FF000C000C208C102B
:1009C0008C088C048C028C018C3F8C000C000C0079
:1009D0000CFFFCFFFC10102011F2FE000F000F3086
:1009E000EF38EF1CEF0EEF07EF03EF3FEF3FEF3F66
:1009F000EF000FFFFFFFFFFFFFFFFF0D0E1C11FABF
:100A0000FF02000200020002000200020022201287
:100A1000400A80070002000000FFF8FFF80F1020D6
:100A200011F9FE0380038003800380038003803379
:100A3000983BB81FF00FE007C00380FFFEFFFEFFEA
:100A4000FEFFFE0E0A1411F9FF030003000300036A
:100A5000000300030003000300FFFCFFFC100C1860
:100A600011F8FE03C003C003C003C003C003C003EA
:100A7000C003C0FFFFFFFFFFFFFFFF0F102011F8B3
:100A8000F8FFFE8000BFFEA002AFFAA80AABEAAAF8
:100A90002AAAAAABAAA82AAFEAA00ABFFA8002FF34
:100AA000FE10102011F8F8FFFFFFFFFFFFFFFFFF10
:100AB000FFFFFFFFFFFFFFFFFFFFFFFFFFFFFFFF46
:100AC000FFFFFFFFFFFFFF0A0E1C11FCF20C000CE2
:100AD000001E001E003F003F007F807F80CCC08C46
:100AE000400C000C000C000C000C102011FBF10F4E
:100AF000000F001F801F803FC03FC07FE07FE0FFEE
:100B0000F0FFF0FFF0EF700F000F000F000F000E6E
:100B10000E1C11F9F907801FE03FF078787038E07B
:100B20001CE01CE01CE01C703878783FF01FE007E8
:100B30008010102011F8F807E01FF83FFC7FFE7FBF
:100B4000FEFC3FF81FF81FF81FF81FFC3F7FFE7FD9
:100B5000FE3FFC1FF807E00E102011FAF33FF0678C
:100B600098C8CC93249E248844C78C7FF85328537C
:100B700028532857A8D32CF03CFFFCFFFC0F102073
:100B800011FAF37FF8EF9CDBEEB7B6BFF69F66CFA6
:100B9000CEFFFCD7ACD7ACD7ACDFECD7AEF33EFF83
:100BA000FEFFFE0F102011F9F91FF020086006501B
:100BB0001A4FE2C002C00240024002591A6AAAEB70
:100BC000AADA9A400240023FFC10102011F9F91FE6
:100BD000F03FF87FFF7FFFFFFFFFFFFFFFFFFF7F7B
:100BE000FF7FFFFFFFFFFFFFFFFFFF7FFF3FFC10C7
:100BF0000F1E11F9F802800280028002800280023A
:100C000080FEFF0000FEFF02800280028002800260
:100C100080028010102011F9F707C007C007C00735
:100C2000C007C0FFFFFFFFFFFFFFFFFFFF07C00779
:100C3000C007C007C007C007C0100F1E11F9F84257
:100C400084A28A52942AA816D00AA0FD7F0280FDB1
:100C50007F0AA016D02AA85294A28A4284100F1E9E
:100C600011F9F866CCB6DBDEF66EEC36D8FABFFCCE
:100C70007F0100FC7FFABF36D86EECDEF6B6DB668D
:100C8000CC100F1E11F9F801000100010001000154
:100C90000001000100FEFF01000100010001000150
:100CA000000100010010102011F9F70380038003F8
:100CB00080038003800380FFFFFFFFFFFF038003AB
:100CC00080038003800380038003800F0F1E11F9CF
:100CD000F8028006C00AA0129022884284FEFE001C
:100CE00000FEFE4284228812900AA006C0028010F4
:100CF000102011F9F707C00FE01FF03BB8739CE319
:100D00008EFFFFFEFFFFFFE38E739C3BB81FF00FCB
:100D1000E007C003800A0A1411FBFB1E007F807FDE
:100D200080FFC0FFC0FFC0FFC07F807F801E000C1F
:100D30000C1811FAFA1F807FE07FE0FFF0FFF0FF50
:100D4000F0FFF0FFF0FFF07FE07FE01F800C0C1859
:100D500011FAF9FFF0801080108010801086108644
:100D6000108010801080108010FFF00E0E1C11F902
:100D7000F8FFFCFFFCFFFCE01CE01CE79CE79CE7A5
:100D80009CE79CE01CE01CFFFCFFFCFFFC0A0E1C27
:100D900011FBF90C001E003F006D80CCC00C000C54
:100DA000000C000C00CCC06D803F001E000C000C3D
:100DB000102011FAF80F001F803FC07FE0FFF0FF06
:100DC000F0FFF00F000F00FFF0FFF0FFF07FE03FBB
:100DD000C01F800F000F0F1E11F2F10002000C0067
:100DE0003C00F803F80FF03FF001E002E004C00817
:100DF000C010802080400080000F102011F2F00011
:100E000006001E007E01FC07F81FF87FF07FF00748
:100E1000E00FE01DC039C07180E180C00080000F8C
:100E20000F1E11F2F10002000C003C00F803F80064
:100E30007000B001200220040008001000200040D3
:100E40000080000F0F1E11F2F10006001E007C0151
:100E5000FC07F807F801F003F007600E401C0038AB
:100E6000007000E000C0000C0C1811FAF9FFF089C6
:100E7000109990B0D0E07086108610E070B0D099D4
:100E8000908910FFF00E0E1C11F9F8FFFCFFFCCF4B
:100E9000CCDFECFCFCFB7CF7BCF7BCFB7CFCFCDF98
:100EA000ECCFCCFFFCFFFC0E0E1C11FAF88FC0DF5C
:100EB000E0F83090109800FC000000000000FC00FA
:100EC000642024307C1FEC0FC410102011F9F7C7E8
:100ED000E0EFF0FFF8FFFCFC1CFF0CFF00FF000040
:100EE000FF00FF307F383F3FFF1FFF0FF707E30E84
:100EF0000E1C11F9F9030007800FC00300231063D3
:100F000018FFFCFFFC6318231003000FC0078003C9
:100F10000010102011F8F803C003E007E00FF017ED
:100F2000E83BDCFFFFFFFFFFFFFFFF3BDC17E80FA5
:100F3000F007E003C003C0100F1E11F2F3007800A9
:100F40007080339FB0FFF0FE30FC30603800F01F3F
:100F5000E008000800080008001E0010102011F230
:100F6000F300FC00FCC0FFFFFFFFFFFFFCFFFCFFE6
:100F7000FCFFFCFFFC7FF81FF01C001C003F003F43
:100F80000010102011FEF03F001080C840EAA0C8F9
:100F900020CBA0F83C383F08270827092F0927094C
:100FA00020111021083EF810102011FEF03F00DF44
:100FB00080EFC0FFE0EFE0EFFCFFFEFFFF3FEF0F31
:100FC000EF0FFF0FEF0FE71FF03FF83EF80D102077
:100FD00011F4F00018007801E003C007800FC01F73
:100FE000E05FC0FFE0BFE00FC00F809400C4006866
:100FF0000030000D102011F4F0003800F803F00765
:10100000E00FC01FE07FF0FFF0FFF0FFF0FFE0FF18
:10101000C0FF80FE00FC0078000F0E1C1100F27F64
:101020008080407E2010100E1010100E2810440CEE
:101030008203040248011000A0004010102011009B
:10104000F17F80FFC0FFE0FFF07FF81FF83FF81F3F
:10105000FC3FFE1FFF0FFE07FC03F801F000E0005D
:10106000400F0E1C11FAFA3EF8638CC10680028014
:101070000280028002C006600C301818300C600636
:10108000C003800F0E1C11FAFA3EF87FFCE38EC1FC
:1010900006C006C006C286E10E701C38381C700FF0
:1010A000E007C0038010102011F8F8FFFFD555AA03
:1010B000ABD555A00BD005A00BD005A00BD005A03B
:1010C0000BD005AAABD555AAABFFFF10102011F825
:1010D000F8FFFFFFFFFFFFFFFFFFFFFFFFFFFFFF27
:1010E000FFFFFFFFFFFFFFFFFFFFFFFFFFFFFFFF10
:1010F000FF0E0E1C11F9F87FF83FF09FE4CFCCE70C
:101100009CF33CFFFCFFFCF33CE79CCFCC9FE43F0F
:10111000F07FF810102011F8F73FFC7FFE7FFEFFF4
:10112000FFFFFFFFFFFFFFFFFFFFFFFFFFFFFFFFCF
:10113000FFFFFF7FFE7FFE3FFC080E0E1100F280D6
:10114000C0E0F0F8FCFEFFF8D88C0C06060A102070
:1011500011FFF1C000E000F000F800FC00FE00FF0D
:1011600000FF80FFC0FFC0FE00EF00CF0007800738
:101170008003000E0D1A1100F9C000C000C100C2AA
:1011800000C400C800DFFCC800C400C200C100C029
:1011900000C000100F1E11FFF8F000F000F0C0F1C9
:1011A000C0F380F700FFFFFFFFFFFFF700F380F1C0
:1011B000C0F0C0F000F0000A0E1C1100F9C000C021
:1011C00000C000C000C000C000FFC0FFC0C000C021
:1011D00000C000C000C000C0000C102011FFF8F0DB
:1011E00000F000F000F000F000F000FFF0FFF0FF72
:1011F000F0FFF0F000F000F000F000F000F0001060
:10120000102011F8F880037FFD7FFD4445455545CA
:10121000554555455544457FFD7FFD7FFD7FFD7F4D
:10122000FD7FFD80030F102011F8F87FFCFFFEFF0B
:10123000FEFFFEFFFEFFFEFFFEFFFEFFFEFFFEFFC6
:10124000FEFFFEFFFEFFFEFFFE7FFC0A0A141100F8
:10125000FFC000C000C000C000C000C000C000C08F
:1012600000FFC0FFC00C0C1811FFFEF000F000F0F2
:1012700000F000F000F000F000F000FFF0FFF0FFE1
:10128000F0FFF00A0A1411F7FF00C000C000C00010
:10129000C000C000C000C000C0FFC0FFC00C0C18E0
:1012A00011F6FE00F000F000F000F000F000F00099
:1012B000F000F0FFF0FFF0FFF0FFF010102011F24F
:1012C000F503801EF0028081004387244B1D7005CA
:1012D00040044002800440092012901450783CF8E9
:1012E0003F10102011F2F51FE03FF03FF8C382E7F6
:1012F000C77FFF3FFB1FF007E007C00FE01FF03F75
:10130000F87EFCFC7FFC7F10102011F8F880037F32
:10131000FD7FFD4445545554555455545544457F1F
:10132000FD7FFD7FFD7FFD7FFD7FFD80030F102092
:1013300011F8F87FFCFFFEFFFEFFFEFFFEFFFEFF41
:10134000FEFFFEFFFEFFFEFFFEFFFEFFFEFFFEFFB5
:10135000FE7FFC0F0E1C11FCF307000C00060003BF
:10136000007FF88004B336B336B33680068006605B
:101370001C1860078010102011FCF10F801E000F58
:101380000007007FF8FFFCFFFFFFFFFFFFFFFFFFED
:10139000FFFFFF3FF71FE00FC007800B102011F683
:1013A000FF700088008C004A007A002100110010B4
:1013B0008008800C400440022001E000E000600052
:1013C000200D102011F5FFFC00FE00FF007F003F04
:1013D000803F801FC00FC00FE007E007F003F80157
:1013E000F800F8007800380F102011F9FC07800F82
:1013F000C01FE0333033301FE00FC0078087848781
:10140000864308387007801FE2F03E8004101020E9
:1014100011F9FC0FC01FE03FF07FF87FF83FF01F8D
:10142000E08FC18FC7CFCFF79C787807807FE3FF2D
:10143000FFF03E0A0A1411FCFB0C000C000C000C1F
:1014400000FFC0FFC00C000C000C000C000C0C18BE
:1014500011FBFA0F000F000F000F00FFF0FFF0FF6D
:10146000F0FFF00F000F000F000F00090F1E11FC1E
:10147000F83E007F00E380C180E180638007001EAA
:10148000001C0014001400770036001C0008000B3C
:10149000102011FBF81F003F807FC0FFE0F1E0F952
:1014A000E07BE03FC01F801F001F003F807FC03FE8
:1014B000801F000E00080E0E11F9F20103070F1F26
:1014C0003F7FFF1F1B313060600A102011F8F100D0
:1014D000C001C003C007C00FC01FC03FC07FC0FF16
:1014E000C0FFC01FC03DC03CC07800780030000E77
:1014F0000D1A11F3F9000C000C020C010C008C0009
:101500004CFFEC004C008C010C020C000C000C1089
:101510000F1E11F2F8000F000F030F038F01CF0011
:10152000EFFFFFFFFFFFFF00EF01CF038F030F006F
:101530000F000F0A0E1C11F7F900C000C000C00018
:10154000C000C000C0FFC0FFC000C000C000C0009D
:10155000C000C000C00C102011F6F800F000F00030
:10156000F000F000F000F0FFF0FFF0FFF0FFF000FF
:10157000F000F000F000F000F000F010102011F882
:10158000F880037FFD7FFD4445554555455545553C
:101590004544457FFD7FFD7FFD7FFD7FFD7FFD8015
:1015A000030F102011F8F87FFCFFFEFFFEFFFEFF87
:1015B000FEFFFEFFFEFFFEFFFEFFFEFFFEFFFEFF43
:1015C000FEFFFEFFFE7FFC0E0E1C11FAF8FFFC80F2
:1015D0004480448044FFC488448844884488448FBD
:1015E000FC880488048804FFFC10102011F9F7FF20
:1015F000FFFFFFFFFFE077FFF7FFF7FFF7EE77EE64
:1016000077EFFFEFFFEFFFEE07FFFFFFFFFFFF0C9E
:101610000D1A11FAF201000100058005800D800D00
:10162000C01DC01DC03DE03DE07DE07DF0F8E01054
:10163000102011F8F000C000E001E003F003F00713
:10164000F007F80FF80FF81FFC1FFC3FFC3FFF7F6F
:10165000FFFFF87FE0070F0F11FD0028282828283A
:10166000282828282828FE7C381009102011FCFF83
:101670003E003E003E003E003E003E003E003E007A
:101680003E003E00FF80FF807F003E001C000800FF
:101690000F070E11F9FC101030187FFCF01E7FFCB4
:1016A000301810100F091211F9FB183038387FFC70
:1016B000FFFEFFFEFFFE7FFC383818300F070E11CB
:1016C00001FC100030007FFEF0007FFE30001000B3
:1016D0001009121100FB0C001C003FFF7FFFFFFFF1
:1016E0007FFF3FFF1C000C000F070E11F1FC0010E4
:1016F0000018FFFC001EFFFC00180010100912115A
:10170000F1FB00300038FFFCFFFEFFFFFFFEFFFC97
:1017100000380030070F0F11FDF010387CFE28282C
:1017200028282828282828282809102011FCF00813
:10173000001C003E007F00FF80FF803E003E003E18
:10174000003E003E003E003E003E003E003E0007E0
:101750000F0F11FDF810387CFE282828282828288B
:10176000FE7C3810090F1E11FCF81C003E007F00A3
:10177000FF80FF803E003E003E003E003E00FF80B6
:10178000FF807F003E001C000F102011F6F00020AB
:10179000007000F801DE05DE09DE11DE11DE11DE6B
:1017A00011DE31DE71DEFDDE1888007800301010A9
:1017B0002011F5F00038007C00FE00FF06FF0EFF50
:1017C0001EFF1EFF1EFF1EFF3EFF7EFFFEFF7EFE72
:1017D0000C7E003C0E0E1C11F9F9FF008000800009
:1017E00080008FC088408844884408440FC4002487
:1017F0000014000C03FC10102011F8F8FFC0FFC00B
:10180000FFC0E000EFF0EFF0EFF7EE77EE77EFF7E5
:101810000FF70FFF001F03FF03FF03FF101020113E
:10182000FAF720101020102008400840878767989A
:101830001FE01FE0679887870840084010201020AD
:10184000201010102011FAF76018303010201860A6
:101850008FC1CFCF6FDC3FF03FE06FF8CFCF8FC1AC
:1018600018401860303060180B102011F7F200603B
:101870000100346079006860FC008400E400A4008A
:10188000E400A400E400E40084008400FC000C10E8
:101890002011F6F2003018B03EB03EB07EB0FF002E
:1018A000FF00FF00FF00FF00FF00FF00FF00FF0040
:1018B000FF00FF000F102011F9F7010002800280E5
:1018C00002800440044004403938C00638380920FA
:1018D0001290244828283018200810102011F9F7F9
:1018E00001000380038006C006C00C601C78F93E2E
:1018F000C007F83E3938339866CC6C6C783C701C65
:101900000F0D1A11F9F903800FE01C703018600CEC
:10191000C106C286C106600C30181C700FE003803F
:10192000100E1C11F9F907C00FE01FF03C78701C75
:10193000E10EC387C6C7C387E10E701C3C781FF059
:1019400007C00D0D1A10FAF9020002000200020091
:1019500002000200FFF80200020002000200020082
:1019600002000F0F1E10F9F803800380038003802C
:1019700003800380FFFEFFFEFFFE038003800380E1
:101980000380038003800E0E1C1100F2C000F000E3
:101990007C007F003FC03FF01F001F000C800C4008
:1019A000042004100008000410102011FFF1E000D2
:1019B000F800FE007F807FE03FFC3FFC1FFC1FC063
:1019C0000FE00F700738071C070E000700030E0E0C
:1019D0001C1100F2FFFCFFFCC000C000C000C7F0FB
:1019E000C600C500C480C440C420C410C000C000EC
:1019F00010102011FFF1FFFFFFFFFFFFFFFFF000BE
:101A0000F7FCF7FCF7FCF7C0F7E0F770F738F71CC6
:101A1000F70CF000F0000E0E1C11F3F2FFFCFFFCBF
:101A2000000C000C000C3F8C018C028C048C088C88
:101A3000108C208C000C000C10102011F2F1FFFF14
:101A4000FFFFFFFFFFFF000F3FEF3FEF3FEF03EF11
:101A500007EF0EEF1CEF38EF30EF000F000F0D0E09
:101A60001C11FAF2FFF8FFF80000020007000A80DC
:101A700012402220020002000200020002000200C6
:101A80000F102011F9F1FFFEFFFEFFFEFFFE0380A5
:101A900007C00FE01FF03BB833980380038003803A
:101AA0000380038003800E0A1411F9F6FFFCFFFC8B
:101AB000030003000300030003000300030003000E
:101AC000100C1811F8F5FFFFFFFFFFFFFFFF03C029
:101AD00003C003C003C003C003C003C003C007109A
:101AE0001011FDF01000387CFEEEFE7C3810BAD6E6
:101AF0009282828209102011FCF01C001C003E0022
:101B00007F00FF80FF80FF807F003E005D00FF8040
:101B1000FF80FF80EB80EB80E3800A0A141100F65F
:101B2000FFC0FFC0C000C000C000C000C000C000B7
:101B3000C000C0000C0C1811FFF5FFF0FFF0FFF023
:101B4000FFF0F000F000F000F000F000F000F00016
:101B5000F0000E0E1C11F9F411200450934C4F901C
:101B60003260C2180200020002000200020002807D
:101B70000280010010102011F8F2176EDFFBBFFC8D
:101B80007FFFFFFCFFFFF39E038003800380038041
:101B900003E003E003E003E001C00A0A1411F7F6D2
:101BA000FFC0FFC000C000C000C000C000C000C037
:101BB00000C000C00C0C1811F6F5FFF0FFF0FFF0AC
:101BC000FFF000F000F000F000F000F000F000F096
:101BD00000F010102011F1F91FE01FE01FE03FF0AE
:101BE0006118C10C8107838783878407C80C60183C
:101BF0003FF01FE01FE01FE010102011F1F93FF04F
:101C00003FF03FF07FF8FFFCFFFFFFFFFFFFFFFF0C
:101C1000FFFFFFFFFFFC7FF83FF03FF03FF0070EB4
:101C20000E0AFDF9EE3810101010101010101010E0
:101C300038EE0910200AFCF8F780FF80FF803E0094
:101C40001C001C001C001C001C001C001C001C00B4
:101C50003E00FF80FF80F780FFFFFFFFFFFFFFFFD9
:101C6000FFFFFFFFFFFFFFFFFFFFFFFFFFFFFFFF84
:101C7000FFFFFFFFFFFFFFFFFFFFFFFFFFFFFFFF74
:101C8000FFFFFFFFFFFFFFFFFFFFFFFFFFFFFFFF64
:101C9000FFFFFFFFFFFFFFFFFFFFFFFFFFFF000052
:101CA0000000240027002A00000000002500280072
:101CB0002B00000000002300260029000404040477
:101CC00004040404020202020202030303030303E6
:101CD00001020408102040800102040810200102C3
:101CE00004081020000000070002010000030406A1
:101CF0000000000000000000140F11241FBECFEFF1
:101D0000D8E0DEBFCDBF11E0A0E0B1E0E4E1F6E352
:101D100002C005900D92AA33B107D9F712E0AAE3E9
:101D2000B1E001C01D92AA31B107E1F71CE1CAEF91
:101D3000DCE104C02297FE010E94041BC83FD107CA
:101D4000C9F70E949E190C94081B0C940000FC011A
:101D5000608351814281651710F091E002C01482C6
:101D600090E0641718F08381848390E0858189175F
:101D700011F081E0868395839923E1F0262F30E0EE
:101D8000251B3109838190E0451BBC01269FC001C2
:101D9000279F900D369F900D1124642F70E00E94B4
:101DA000CC1A9B01848190E08617970711F081E09F
:101DB0008683248308951F93282F162F88E791E0A8
:101DC000622F0E94A70E8FE791E0612F0E94A70E5D
:101DD00080917D01882321F080918401811181E02F
:101DE0008093860180917E01882321F48091850172
:101DF000882319F081E0809387011F910895FF9255
:101E00000F931F938C01262FFC01F3AC04966F2DCA
:101E100044AD0E942B13F80EF801F3AE81E090E080
:101E20001F910F91FF900895AF92BF92CF92EF92C2
:101E30000F9310923D0110923C016CE3A62E61E0DD
:101E4000B62E86E391E0F501929382935F01CF0174
:101E500063E271E047E028E004E056E0E52E35E07B
:101E6000C32E0E94CB158EE291E0F5019183808311
:101E70000F91EF90CF90BF90AF900895CF92DF92E7
:101E8000EF92FF920F931F937B016A010FEF10E017
:101E9000B801681B790B8BE00E94AB18B8016E1972
:101EA0007F098AE00E94AB180C191D0989E0B8016E
:101EB0000E94AB181F910F91FF90EF90DF90CF9091
:101EC00008950F931F930EE311E0C80168EF77E0C8
:101ED0000E948710C80160E20E948B1090913E0121
:101EE00020913F0182E28093790188EE80937A010C
:101EF000915090937B0187E5809380018EED8093D4
:101F0000810121502093820181E08093870180E04C
:101F100090E060E070E04FEF50E00E943E0F1F91B4
:101F20000F910895CF92DF92EF92FF920F931F933C
:101F3000082F6B017EE3E72E71E0F72E10913E0132
:101F4000C701B6010E946B12181B1695C701612FBD
:101F5000402F96010E9403131F910F91FF90EF9065
:101F6000DF90CF9008958EE391E06EEA70E00E94DA
:101F700085128AE060E071E00E94920F80918601F4
:101F8000882371F11092750184E1809376018AE3D0
:101F900091E061E171E00E94AA1A60917C018AE3FC
:101FA00091E070E04AE050E00E94971A10927501AB
:101FB0008EE1809376018AE391E064E171E00E9412
:101FC000AA1A60913F0170E06150704080918301D6
:101FD000681B71098AE391E04AE050E00E94971A79
:101FE0000895EF92FF920F931F93F82EE62E142F71
:101FF000822F60E00E940B19812F62E00E940B1972
:102000008F2D61E00E940B198E2D61E00E940B194B
:102010008F2D61E00E944A198E2D60E00E944A19BE
:102020006AE070E080E090E00E94F517812F0E9446
:1020300089188C018F2D60E00E940B198E2D60E0B5
:102040000E940B196AE070E080E090E00E94F517B2
:102050001595079515950795802F1F910F91FF9066
:10206000EF9008951F93809118016091170140919E
:102070001A01209119010E94F10F182F8091190166
:1020800060911A0140911701209118010E94F10FEF
:10209000682F812F0E94DB0E1F9108950E9432103D
:1020A00080918601882329F08EE391E00E949210AE
:1020B00004C08EE391E00E94981040913F0141508E
:1020C00080918301481B8EE391E060917C010E9426
:1020D0008E10809187018823C9F01092870180912A
:1020E0007701882339F481E0809377018EE391E0D2
:1020F0000E9448148EE391E00E9458140E94B30F8E
:102100008EE391E00E945E148823C1F70895FC01DC
:10211000778366830895FC0162870895FC016487D4
:10212000458708952CE930E1FC013787268708951B
:10213000FC01178616860895CF92DF92EF92FF92E8
:102140000F931F938C01FC01D2840E948214C82E2D
:10215000F801E480F5808681978195838483C801A6
:1021600061850E947F142D2D2F5FC801F8016485C1
:1021700045850E949912C801F80160850E947F146C
:10218000C801F801648545852D2D0E949912F8013A
:10219000F582E482C8016C2D0E947F141F910F917B
:1021A000FF90EF90DF90CF900895AF92BF92CF92C3
:1021B000DF92EF92FF920F93CF93DF937C01EB01BD
:1021C000042F5901403109F453C0413130F44A30F1
:1021D00059F04F3009F055C030C0413109F44EC0BC
:1021E000453109F04EC00AC043E00E94FD15C70109
:1021F000BE0148E650E00E943C1643C0CA80DB8026
:102200004EE850E00E943C16F6014481406BC70145
:10221000BE010E942C16C701BE0141E00E94231698
:10222000C601B701AE010E941615882381F1C701CE
:10223000BE0140E00E94061624C041E00E9406163E
:10224000C701BE0140E00E942316C701BE0141E85C
:102250000E942C16F501408146954695C701BE01A6
:102260000E942C16C701BE0140E00E94061604C061
:1022700046E950E00E943C1681E009C042EA50E085
:10228000F9CFC701BE01402F95010E948115DF9152
:10229000CF910F91FF90EF90DF90CF90BF90AF90D4
:1022A0000895FC01E60FF11D8491382F20E031964E
:1022B000E4912E0F311DC9010895FC018491089508
:1022C0000E945D11882321F0823011F083E008958F
:1022D00086E0089566E00E945111089568E00E942A
:1022E00051110895FC013A96E4918E2F0895FC0156
:1022F0003B96E4918E2F08959F92AF92BF92CF921A
:10230000DF92EF92FF920F931F93CF93DF93EC0135
:10231000C62EFC80ED800F2D1E2D8F2D9E2D0E9430
:102320005D11B82E8F2D9E2D0E946011982E81E098
:10233000B81619F48FE0A82E02C0AA24AA948F2DF3
:102340009E2D0E947711D82E80E68C1558F48F2D83
:102350009E2D0E946E11009729F0F801E80FF91FD9
:1023600081E614C080E48C1558F48F2D9E2D0E94B8
:102370006A11009729F0F801E80FF91F81E406C0FF
:102380008F2D9E2D0E947211F8017196DC1408F4B5
:1023900045C0D81608F442C0282F492D50E094912A
:1023A0009F3F11F4319636C02C1509F02BC0BB208D
:1023B00019F082E0B81681F484918B8B3196849168
:1023C0008C8B32968491888B31968491898B31964F
:1023D000849135978A8B29C0892F8F7082508A8B80
:1023E00092959F70998B31968491982F9F709C8BBA
:1023F00082958F708B8B31968491329782958F70F6
:10240000888B13C03296849132978A21E80FF11D90
:10241000E40FF51F2D1511F02F5FC1CF188A1B8A0D
:102420001C8A198A1A8AE0E0F0E0CF01DF91CF918F
:102430001F910F91FF90EF90DF90CF90BF90AF90E2
:102440009F900895DC011496ED91FC9115973097BB
:1024500009F438C057968C915797882339F43596EC
:10246000849158968C93589737960AC0813011F40E
:102470003F9601C03D96849158968C93589731961B
:10248000849159968C93599758968C915897282FE8
:10249000332727FD309559968C915997992787FDB9
:1024A0009095281B390B5A968C915A97803441F09D
:1024B000289F9001112496E0369527959A95E1F78B
:1024C0005B962C93089580E0089523E632E1FC01A9
:1024D000368B258B0895EF92FF921F93CF93DF9356
:1024E0007C01EB0110E06881662341F0C7010E9486
:1024F0007C11F7018089180F2196F5CF812FDF918C
:10250000CF911F91FF90EF900895CF93DF93EC014F
:102510008C819D818617970749F07D836C83CE015E
:102520000E94221283E692E19E8B8D8BDF91CF91E8
:1025300008954F925F926F927F928F929F92AF9287
:10254000BF92CF92DF92EF92FF920F931F93CF93A0
:10255000DF937C01062FB42E622F0E947C11EC01C8
:10256000009711F480E03EC0F701C480D580138944
:1025700074888188800E82899B2C9718981AC701CD
:10258000682D492D212F072D0E94D915882341F14F
:10259000C6010E94601167E0A62EA10EA694A69423
:1025A000A6946E01C80ED11CBB244A2C552411C020
:1025B000FE010491C701612F462D20E00E946E1498
:1025C0002196185F9E012C192A1590F3C40CD51C76
:1025D000B3946B2C690CB71418F4E601182DF2CFE4
:1025E000F7018089DF91CF911F910F91FF90EF90BC
:1025F000DF90CF90BF90AF909F908F907F906F9023
:102600005F904F900895DF92EF92FF920F931F9388
:10261000CF93DF938C01D62EE42EE901DC01559691
:10262000ED91FC9156970995E80EFF2408C0C8016A
:102630006D2D4E2D0E949912D80EF80E21962881EC
:102640002223A9F78F2DDF91CF911F910F91FF903A
:10265000EF90DF900895DF92EF92FF920F931F9318
:102660008C01E62EF42ED22EDC015596ED91FC91D4
:1026700056970995F80EC8016E2D4F2D2D2D0E94ED
:1026800099121F910F91FF90EF90DF900895EF92B4
:10269000FF920F931F938C017B01DC01D196ED918A
:1026A000FC91D29782E00995D701ED91FC91C80188
:1026B000B7014AE020E030E00995F82ED801D19624
:1026C000ED91FC91D29783E00995D801D196ED91D7
:1026D000FC91D29780E009958F2D1F910F91FF906B
:1026E000EF900895EF92FF920F931F938C017B015F
:1026F000DC01D196ED91FC91D29782E00995D80149
:10270000D196ED91FC91D29781E00995D701ED9199
:10271000FC91C801B70144E120E030E0099598013F
:102720002D5C3F4FD701ED91FC91C801B70147E106
:102730000995D801D196ED91FC91D29780E0099549
:102740001F910F91FF90EF900895FF920F931F93A9
:10275000CF93DF93EC018B01E9A9FAA982E00995F7
:10276000E9A9FAA981E00995D801ED91FC91CE0182
:10277000B80145E120E030E00995F82E882351F0BA
:102780009E012D5C3F4FD801ED91FC91CE01B80127
:1027900047E10995E9A9FAA980E009958F2DDF9114
:1027A000CF911F910F91FF900895EF920F93CF93C8
:1027B000DF93FC01448F258F078FE68EEB01A88104
:1027C000B9814BE37C969F01FD010995DF91CF9183
:1027D0000F91EF900895DF93CF930F92CDB7DEB7AF
:1027E000FB01A081B18146E49E012F5F3F4FFD01B7
:1027F000099589810F90CF91DF910895DF93CF9351
:102800000F92CDB7DEB7FB01A081B18147E49E01F5
:102810002F5F3F4FFD01099589810F90CF91DF9187
:102820000895FB01A081B18148E420E030E0FD0182
:10283000099508950F931F938C01DC0112966D91F9
:102840007C9113970E94EB13F8018083628173815E
:10285000C8010E94FE13D80111968C93119712960D
:102860006D917C911397C8010E941114F801838720
:102870000280F381E02DA081B181C801BF0147E151
:102880000D5C1F4F9801FD0109951F910F9108954F
:10289000CF93DF93EC016A817B810E9447138823E9
:1028A00021F0CE010E941A1481E0DF91CF910895AA
:1028B000FC01628173810E9472130895CF93DF93AC
:1028C000EC01EE85FF85309709F009956A817B81DF
:1028D000CE010E94A513DF91CF910895EF920F933F
:1028E000FC01362F542FA22FE02E62817381432FDB
:1028F000252F0A2F0E94D5130F91EF900895FC0108
:1029000060A30895FC0180A108951F93CF93DF93E6
:10291000EC011D821C821F821E82198681E088873D
:1029200082E28A871F861E86FE01B39680E09FEFB3
:1029300091938F5F8E30E1F711E018A3CE010E94D2
:1029400065121F8B188E198E80E48A8F1B8E8AEC7D
:1029500095E19AAB89ABDF91CF911F9108958F924A
:102960009F92AF92BF92CF92EF92FF920F931F93DD
:102970005C014B01142FF22E0E948514F501938205
:10298000828217A3F0A605A3E4A2C3A2C5010E94F8
:1029900048141F910F91FF90EF90CF90BF90AF9090
:1029A0009F908F900895FC01A681B78185819D013C
:1029B000280F311DC9011D92A817B907E1F7089525
:1029C000DC01FB01108212968C911297818315967F
:1029D0008C9115978150828313968C9183830895EF
:1029E000DC01FB0121818381813021F0833029F0DA
:1029F000322F05C0322F385F02C0322F285040E0FE
:102A000013968C911397821708F041E050E01296CC
:102A10008C91381708F051E090E0321708F491E0FB
:102A2000892F8423942B9523892B0895FC01CB01B6
:102A300026813781BA0145810E9435160895FC012F
:102A4000A681B7818281481B477081E090E001C078
:102A5000880F4A95EAF7A60FB11D9C91222311F029
:102A6000982B02C0809598239C930895FC01DB016C
:102A700011964C9111978281481760F083818417D9
:102A800048F06C918581681728F4CF0114962C9139
:102A90000E941F150895CF92DF92FF920F931F930C
:102AA000CF93DF936C01EB01FA808B81813061F071
:102AB000813028F0823051F0833021F40AC000E0E8
:102AC00011E009C000E006C001E004C000E01FEF13
:102AD00002C00FEF10E0F7FE04C0C601BE010E9465
:102AE00036158881810F88838981800F8983FF0C47
:102AF00091F7DF91CF911F910F91FF90DF90CF90D1
:102B000008950F931F93CF93DF93FB018901C28137
:102B1000D3814233D1F0433338F4453111F1473199
:102B200049F1443189F516C0463449F1473449F139
:102B30004B3351F5CE01B9010E94F014882321F1E5
:102B4000CE01B8010E944B151FC0CE01B9010E94F1
:102B500036151AC0CE010E94D314CE010E946E1702
:102B600013C0CE010E947517882379F0CE010E9410
:102B7000D3140AC0CE01B9010E94E01405C08D81B2
:102B800001C08981F801808381E0DF91CF911F919D
:102B90000F9108950895CF92EF920F93FC0113AE19
:102BA00014AE15AE04960E94AF140F91EF90CF9023
:102BB00008950F93FC014150040F4F5F94A986A91B
:102BC000841718F0091728F402C0091798F00417A1
:102BD00088F46150260F6F5F93A985A9861718F0B6
:102BE000291718F005C0291728F080E0261718F4D7
:102BF00081E001C080E00F910895FB010480F58120
:102C0000E02D61E020E030E009950895FB010480AB
:102C1000F581E02D63E020E030E009950895FB01A7
:102C20000480F581E02D64E040E020E030E009958B
:102C30000895FB010480F581E02D64E041E020E08F
:102C400030E009950895FB010480F581E02D62E0F4
:102C500020E030E009950895FB010480F581E02D26
:102C600065E020E030E009950895FB010480F581DE
:102C7000E02D66E009950895CF92DF92EF92FF92E2
:102C80000F931F93CF93DF937C01EB016A0100E068
:102C9000F6011491002361F41F3F11F401E045C0D7
:102CA000C701BE01412F0E942C168823F1F541C0B7
:102CB0001F3F41F4C701BE014FEF0E942C1688232D
:102CC00099F537C01E3F11F481E034C0103F60F524
:102CD000103E38F01F70C701BE01412F0E9423161D
:102CE00023C0103D38F01F70C701BE01412F0E9464
:102CF00006161AC0103C80F0C701BE010E940F16D4
:102D00001295107F1E5F812F90E00E946417C7010B
:102D1000BE010E94191604C01E3B30F417FD04C00A
:102D2000812F90E00E94641700E00894C11CD11C20
:102D3000AFCF80E0DF91CF911F910F91FF90EF9087
:102D4000DF90CF900895282F6091150250911902BD
:102D50004091140230911802A0911602B09117020E
:102D6000E0911202F09113028FB780931102F89450
:102D700098E027FF03C08C91862B02C08C9185239D
:102D80008C938081842B80839150808183238083E6
:102D9000992311F0220FEDCF809111028FBF08957A
:102DA0001F93CF93DF93EC01142F643009F458C0C4
:102DB000653050F4623009F47EC0633008F056C0CC
:102DC000613009F07CC00AC0663009F460C066302A
:102DD00008F459C0673009F072C062C00E948B17B6
:102DE000CE0164E040E00E94A317CE0165E040E020
:102DF0000E94A3172FA188A5482F50E0FA01E454A0
:102E0000F34EE491F0E0EE0FFF1FE855F34E85918D
:102E10009491909317028093160230E0F901E454E4
:102E2000F34EE491F0E0EE0FFF1FE855F34E85916D
:102E3000949190931302809312024053534EFA01DF
:102E40008491809315022053334EF90124912093ED
:102E500014022095209318028095809319022FC0A8
:102E60008BA18F3F61F1CE0160E026C0442319F4AD
:102E700062E041E022C064E040E00E94A317CE017E
:102E800062E040E01AC0842F0E94A31618C0E90136
:102E900004C089910E94A31611501123D1F70FC0CD
:102EA000E90106C0FE0184910E94A31621961150EB
:102EB0001123C1F704C061E0412F0E94A31781E0F4
:102EC000DF91CF911F9108952EE93FE004C0F901F1
:102ED0003197F1F701970097D1F70895FC0112821D
:102EE00080818150838314820895FC012081828136
:102EF000820F82839181891710F080E00895848188
:102F00008F5F84838381820F891710F0892F81500E
:102F1000838381E008951F93CF93DF93EC01A39601
:102F200010E088818F3F39F061E00E940B198881A1
:102F300061E00E944A191F5F21961D3091F7DF91D1
:102F4000CF911F910895FC01E60FF11D83A18F3FE2
:102F500019F0642F0E944A1908951F920F920FB61C
:102F60000F9211242F933F938F939F93AF93BF930F
:102F700080910C0290910D02A0910E02B0910F026F
:102F8000309110020196A11DB11D232F2D5F2D3709
:102F900020F02D570196A11DB11D209310028093A2
:102FA0000C0290930D02A0930E02B0930F02809139
:102FB000080290910902A0910A02B0910B020196B9
:102FC000A11DB11D8093080290930902A0930A02EB
:102FD000B0930B02BF91AF919F918F913F912F9131
:102FE0000F900FBE0F901F9018959B01AC017FB7FB
:102FF000F8948091080290910902A0910A02B09180
:103000000B0266B5A89B05C06F3F19F00196A11D84
:10301000B11D7FBFBA2FA92F982F8827860F911D2A
:10302000A11DB11D62E0880F991FAA1FBB1F6A95E1
:10303000D1F7BC012DC0FFB7F894809108029091A0
:103040000902A0910A02B0910B02E6B5A89B05C047
:10305000EF3F19F00196A11DB11DFFBFBA2FA92F97
:10306000982F88278E0F911DA11DB11DE2E0880FBA
:10307000991FAA1FBB1FEA95D1F7861B970B885E85
:103080009340C8F2215030404040504068517C4F3E
:10309000211531054105510571F60895789484B5DF
:1030A000826084BD84B5816084BD85B5826085BD44
:1030B00085B5816085BDEEE6F0E08081816080832A
:1030C000E1E8F0E01082808182608083808181600D
:1030D0008083E0E8F0E0808181608083E1EBF0E0D4
:1030E000808184608083E0EBF0E080818160808378
:1030F000EAE7F0E080818460808380818260808361
:103100008081816080838081806880831092C1008B
:103110000895982F8E3008F09E5097708091290165
:103120008295880F880F807C892B80937C0080910A
:103130007A00806480937A0080917A0086FDFCCFCB
:103140002091780040917900942F80E030E0282B86
:10315000392BC90108951F93CF93DF93182FEB01EB
:1031600061E00E940B19209709F44AC0CF3FD105B6
:1031700009F449C0E12FF0E0EC51F34E8491833023
:10318000C1F0843028F4813051F08230B1F50CC0A8
:10319000863019F1873049F1843079F514C084B54F
:1031A000806884BDC7BD33C084B5806284BDC8BD9E
:1031B0002EC080918000806880938000D093890029
:1031C000C093880024C0809180008062809380003A
:1031D000D0938B00C0938A001AC08091B0008068A1
:1031E0008093B000C093B30012C08091B0008062A1
:1031F0008093B000C093B4000AC0C038D1051CF45D
:10320000812F60E002C0812F61E00E944A19DF91A6
:10321000CF911F910895CF93DF93482F50E0CA01BB
:103220008053934EFC0134914454534EFA018491DF
:10323000882369F190E0880F991FFC01E256F34E54
:10324000A591B491FC01E855F34EC591D491662344
:1032500051F42FB7F8948C91932F909589238C93E8
:10326000888189230BC0623061F42FB7F8948C9168
:10327000932F909589238C938881832B88832FBFEC
:1032800006C09FB7F8948C91832B8C939FBFDF91DE
:10329000CF910895482F50E0CA018C51934EFC0104
:1032A0002491CA018053934EFC0194914454534E8F
:1032B000FA013491332309F440C0222351F1233021
:1032C00071F0243028F42130A1F0223011F514C01F
:1032D0002630B1F02730C1F02430D9F404C08091F9
:1032E00080008F7703C0809180008F7D8093800065
:1032F00010C084B58F7702C084B58F7D84BD09C0AE
:103300008091B0008F7703C08091B0008F7D809353
:10331000B000E32FF0E0EE0FFF1FE855F34EA5914C
:10332000B4912FB7F894662321F48C91909589235A
:1033300002C08C91892B8C932FBF0895CF93DF937C
:103340000E944E180E94610FC0E0D0E00E944E1013
:103350002097E1F30E940000F9CFCF92DF92EF9225
:10336000FF920F931F93CF93DF937C016B018A0130
:10337000C0E0D0E00FC0D6016D916D01D701ED9195
:10338000FC910190F081E02DC7010995C80FD91F6C
:10339000015010400115110571F7CE01DF91CF9159
:1033A0001F910F91FF90EF90DF90CF900895CF93F2
:1033B000DF93EC016115710519F420E030E00FC0D6
:1033C000DB010D900020E9F71197A61BB70BE881F0
:1033D000F9810280F381E02DAD0109959C01C901BD
:1033E000DF91CF9108954F925F927F928F929F923B
:1033F000AF92BF92CF92DF92EF92FF920F931F9303
:10340000DF93CF93CDB7DEB7A1970FB6F894DEBFA9
:103410000FBECDBF2C01742ECB01223008F42AE060
:1034200019A231E2C32ED12CCC0EDD1E822E99249E
:10343000AA24BB24672D752FA50194010E94E01AD0
:1034400079018A01C801B701A50194010E94AD1A52
:10345000472D461B0894C108D1084A3014F4405D3A
:1034600001C0495CF6014083E114F1040105110536
:1034700021F07E2C5F2DC801DDCFC201B6010E9474
:10348000D719A1960FB6F894DEBF0FBECDBFCF916E
:10349000DF911F910F91FF90EF90DF90CF90BF9041
:1034A000AF909F908F907F905F904F900895CF92B4
:1034B000DF92EF92FF920F931F93CF93DF93EC0174
:1034C0006A017B012115310541F4E881F981019000
:1034D000F081E02D642F09951FC02A303105D1F409
:1034E00077FF17C0E881F9810190F081E02D6DE24E
:1034F00009958C0144275527BA014C195D096E09BD
:103500007F09CE012AE00E94F3199801280F391F84
:1035100004C02AE00E94F3199C01C901DF91CF91F8
:103520001F910F91FF90EF90DF90CF900895EF9251
:10353000FF920F931F937B019A010027F7FC0095E0
:10354000102FB801A7010E94571A1F910F91FF90E9
:10355000EF9008950E94D7190895629FD001739F3C
:10356000F001829FE00DF11D649FE00DF11D929F1F
:10357000F00D839FF00D749FF00D659FF00D99275E
:10358000729FB00DE11DF91F639FB00DE11DF91F82
:10359000BD01CF0111240895AA1BBB1B51E107C037
:1035A000AA1FBB1FA617B70710F0A61BB70B881FD3
:1035B000991F5A95A9F780959095BC01CD01089562
:1035C000A1E21A2EAA1BBB1BFD010DC0AA1FBB1F27
:1035D000EE1FFF1FA217B307E407F50720F0A21B99
:1035E000B30BE40BF50B661F771F881F991F1A9406
:1035F00069F760957095809590959B01AC01BD0130
:10360000CF010895EE0FFF1F0590F491E02D09946E
:04361000F894FFCF5C
:10361400546F7563682050616E656C2054657374D3
:1036240000783D00793D001012111308400000009D
:10363400808801D5101B01D0160100000000FF0E88
:0A364400AD1900000000FF0EAD19E3
:00000001FF
